{"contracts/NFTSmartContract.sol":{"NewItem":{"abi":[{"inputs":[{"internalType":"address","name":"_multisigContract","type":"address"}],"stateMutability":"nonpayable","type":"constructor"},{"inputs":[{"internalType":"address","name":"sender","type":"address"},{"internalType":"uint256","name":"tokenId","type":"uint256"},{"internalType":"address","name":"owner","type":"address"}],"name":"ERC721IncorrectOwner","type":"error"},{"inputs":[{"internalType":"address","name":"operator","type":"address"},{"internalType":"uint256","name":"tokenId","type":"uint256"}],"name":"ERC721InsufficientApproval","type":"error"},{"inputs":[{"internalType":"address","name":"approver","type":"address"}],"name":"ERC721InvalidApprover","type":"error"},{"inputs":[{"internalType":"address","name":"operator","type":"address"}],"name":"ERC721InvalidOperator","type":"error"},{"inputs":[{"internalType":"address","name":"owner","type":"address"}],"name":"ERC721InvalidOwner","type":"error"},{"inputs":[{"internalType":"address","name":"receiver","type":"address"}],"name":"ERC721InvalidReceiver","type":"error"},{"inputs":[{"internalType":"address","name":"sender","type":"address"}],"name":"ERC721InvalidSender","type":"error"},{"inputs":[{"internalType":"uint256","name":"tokenId","type":"uint256"}],"name":"ERC721NonexistentToken","type":"error"},{"anonymous":false,"inputs":[{"indexed":true,"internalType":"address","name":"owner","type":"address"},{"indexed":true,"internalType":"address","name":"approved","type":"address"},{"indexed":true,"internalType":"uint256","name":"tokenId","type":"uint256"}],"name":"Approval","type":"event"},{"anonymous":false,"inputs":[{"indexed":true,"internalType":"address","name":"owner","type":"address"},{"indexed":true,"internalType":"address","name":"operator","type":"address"},{"indexed":false,"internalType":"bool","name":"approved","type":"bool"}],"name":"ApprovalForAll","type":"event"},{"anonymous":false,"inputs":[{"indexed":false,"internalType":"uint256","name":"_fromTokenId","type":"uint256"},{"indexed":false,"internalType":"uint256","name":"_toTokenId","type":"uint256"}],"name":"BatchMetadataUpdate","type":"event"},{"anonymous":false,"inputs":[{"indexed":false,"internalType":"uint256","name":"_tokenId","type":"uint256"}],"name":"MetadataUpdate","type":"event"},{"anonymous":false,"inputs":[{"indexed":false,"internalType":"address","name":"to","type":"address"},{"indexed":false,"internalType":"uint256","name":"tokenId","type":"uint256"}],"name":"MintRequested","type":"event"},{"anonymous":false,"inputs":[{"indexed":true,"internalType":"address","name":"from","type":"address"},{"indexed":true,"internalType":"address","name":"to","type":"address"},{"indexed":true,"internalType":"uint256","name":"tokenId","type":"uint256"}],"name":"Transfer","type":"event"},{"inputs":[{"internalType":"address","name":"to","type":"address"},{"internalType":"uint256","name":"tokenId","type":"uint256"}],"name":"approve","outputs":[],"stateMutability":"nonpayable","type":"function"},{"inputs":[{"internalType":"address","name":"owner","type":"address"}],"name":"balanceOf","outputs":[{"internalType":"uint256","name":"","type":"uint256"}],"stateMutability":"view","type":"function"},{"inputs":[{"internalType":"uint256","name":"tokenId","type":"uint256"}],"name":"getApproved","outputs":[{"internalType":"address","name":"","type":"address"}],"stateMutability":"view","type":"function"},{"inputs":[{"internalType":"address","name":"owner","type":"address"},{"internalType":"address","name":"operator","type":"address"}],"name":"isApprovedForAll","outputs":[{"internalType":"bool","name":"","type":"bool"}],"stateMutability":"view","type":"function"},{"inputs":[{"internalType":"address","name":"to","type":"address"},{"internalType":"string","name":"tokenURI","type":"string"}],"name":"mint","outputs":[],"stateMutability":"nonpayable","type":"function"},{"inputs":[],"name":"multisigContract","outputs":[{"internalType":"address","name":"","type":"address"}],"stateMutability":"view","type":"function"},{"inputs":[],"name":"name","outputs":[{"internalType":"string","name":"","type":"string"}],"stateMutability":"view","type":"function"},{"inputs":[{"internalType":"uint256","name":"tokenId","type":"uint256"}],"name":"ownerOf","outputs":[{"internalType":"address","name":"","type":"address"}],"stateMutability":"view","type":"function"},{"inputs":[{"internalType":"address","name":"from","type":"address"},{"internalType":"address","name":"to","type":"address"},{"internalType":"uint256","name":"tokenId","type":"uint256"}],"name":"safeTransferFrom","outputs":[],"stateMutability":"nonpayable","type":"function"},{"inputs":[{"internalType":"address","name":"from","type":"address"},{"internalType":"address","name":"to","type":"address"},{"internalType":"uint256","name":"tokenId","type":"uint256"},{"internalType":"bytes","name":"data","type":"bytes"}],"name":"safeTransferFrom","outputs":[],"stateMutability":"nonpayable","type":"function"},{"inputs":[{"internalType":"address","name":"operator","type":"address"},{"internalType":"bool","name":"approved","type":"bool"}],"name":"setApprovalForAll","outputs":[],"stateMutability":"nonpayable","type":"function"},{"inputs":[{"internalType":"address","name":"_multisigContract","type":"address"}],"name":"setMultisigContract","outputs":[],"stateMutability":"nonpayable","type":"function"},{"inputs":[{"internalType":"bytes4","name":"interfaceId","type":"bytes4"}],"name":"supportsInterface","outputs":[{"internalType":"bool","name":"","type":"bool"}],"stateMutability":"view","type":"function"},{"inputs":[],"name":"symbol","outputs":[{"internalType":"string","name":"","type":"string"}],"stateMutability":"view","type":"function"},{"inputs":[{"internalType":"uint256","name":"tokenId","type":"uint256"}],"name":"tokenURI","outputs":[{"internalType":"string","name":"","type":"string"}],"stateMutability":"view","type":"function"},{"inputs":[{"internalType":"address","name":"from","type":"address"},{"internalType":"address","name":"to","type":"address"},{"internalType":"uint256","name":"tokenId","type":"uint256"}],"name":"transferFrom","outputs":[],"stateMutability":"nonpayable","type":"function"}],"devdoc":{"errors":{"ERC721IncorrectOwner(address,uint256,address)":[{"details":"Indicates an error related to the ownership over a particular token. Used in transfers.","params":{"owner":"Address of the current owner of a token.","sender":"Address whose tokens are being transferred.","tokenId":"Identifier number of a token."}}],"ERC721InsufficientApproval(address,uint256)":[{"details":"Indicates a failure with the `operator`’s approval. Used in transfers.","params":{"operator":"Address that may be allowed to operate on tokens without being their owner.","tokenId":"Identifier number of a token."}}],"ERC721InvalidApprover(address)":[{"details":"Indicates a failure with the `approver` of a token to be approved. Used in approvals.","params":{"approver":"Address initiating an approval operation."}}],"ERC721InvalidOperator(address)":[{"details":"Indicates a failure with the `operator` to be approved. Used in approvals.","params":{"operator":"Address that may be allowed to operate on tokens without being their owner."}}],"ERC721InvalidOwner(address)":[{"details":"Indicates that an address can't be an owner. For example, `address(0)` is a forbidden owner in ERC-20. Used in balance queries.","params":{"owner":"Address of the current owner of a token."}}],"ERC721InvalidReceiver(address)":[{"details":"Indicates a failure with the token `receiver`. Used in transfers.","params":{"receiver":"Address to which tokens are being transferred."}}],"ERC721InvalidSender(address)":[{"details":"Indicates a failure with the token `sender`. Used in transfers.","params":{"sender":"Address whose tokens are being transferred."}}],"ERC721NonexistentToken(uint256)":[{"details":"Indicates a `tokenId` whose `owner` is the zero address.","params":{"tokenId":"Identifier number of a token."}}]},"events":{"Approval(address,address,uint256)":{"details":"Emitted when `owner` enables `approved` to manage the `tokenId` token."},"ApprovalForAll(address,address,bool)":{"details":"Emitted when `owner` enables or disables (`approved`) `operator` to manage all of its assets."},"BatchMetadataUpdate(uint256,uint256)":{"details":"This event emits when the metadata of a range of tokens is changed. So that the third-party platforms such as NFT market could timely update the images and related attributes of the NFTs."},"MetadataUpdate(uint256)":{"details":"This event emits when the metadata of a token is changed. So that the third-party platforms such as NFT market could timely update the images and related attributes of the NFT."},"Transfer(address,address,uint256)":{"details":"Emitted when `tokenId` token is transferred from `from` to `to`."}},"kind":"dev","methods":{"approve(address,uint256)":{"details":"See {IERC721-approve}."},"balanceOf(address)":{"details":"See {IERC721-balanceOf}."},"getApproved(uint256)":{"details":"See {IERC721-getApproved}."},"isApprovedForAll(address,address)":{"details":"See {IERC721-isApprovedForAll}."},"name()":{"details":"See {IERC721Metadata-name}."},"ownerOf(uint256)":{"details":"See {IERC721-ownerOf}."},"safeTransferFrom(address,address,uint256)":{"details":"See {IERC721-safeTransferFrom}."},"safeTransferFrom(address,address,uint256,bytes)":{"details":"See {IERC721-safeTransferFrom}."},"setApprovalForAll(address,bool)":{"details":"See {IERC721-setApprovalForAll}."},"supportsInterface(bytes4)":{"details":"See {IERC165-supportsInterface}"},"symbol()":{"details":"See {IERC721Metadata-symbol}."},"tokenURI(uint256)":{"details":"See {IERC721Metadata-tokenURI}."},"transferFrom(address,address,uint256)":{"details":"See {IERC721-transferFrom}."}},"version":1},"evm":{"bytecode":{"linkReferences":{},"object":"608060405234801561001057600080fd5b50604051612abd380380612abd83398181016040528101906100329190610172565b6040518060400160405280600781526020017f4e65774974656d000000000000000000000000000000000000000000000000008152506040518060400160405280600481526020017f4d4e46540000000000000000000000000000000000000000000000000000000081525081600090816100ad91906103ef565b5080600190816100bd91906103ef565b505050600160078190555080600860006101000a81548173ffffffffffffffffffffffffffffffffffffffff021916908373ffffffffffffffffffffffffffffffffffffffff160217905550506104c1565b600080fd5b600073ffffffffffffffffffffffffffffffffffffffff82169050919050565b600061013f82610114565b9050919050565b61014f81610134565b811461015a57600080fd5b50565b60008151905061016c81610146565b92915050565b6000602082840312156101885761018761010f565b5b60006101968482850161015d565b91505092915050565b600081519050919050565b7f4e487b7100000000000000000000000000000000000000000000000000000000600052604160045260246000fd5b7f4e487b7100000000000000000000000000000000000000000000000000000000600052602260045260246000fd5b6000600282049050600182168061022057607f821691505b602082108103610233576102326101d9565b5b50919050565b60008190508160005260206000209050919050565b60006020601f8301049050919050565b600082821b905092915050565b60006008830261029b7fffffffffffffffffffffffffffffffffffffffffffffffffffffffffffffffff8261025e565b6102a5868361025e565b95508019841693508086168417925050509392505050565b6000819050919050565b6000819050919050565b60006102ec6102e76102e2846102bd565b6102c7565b6102bd565b9050919050565b6000819050919050565b610306836102d1565b61031a610312826102f3565b84845461026b565b825550505050565b600090565b61032f610322565b61033a8184846102fd565b505050565b5b8181101561035e57610353600082610327565b600181019050610340565b5050565b601f8211156103a35761037481610239565b61037d8461024e565b8101602085101561038c578190505b6103a06103988561024e565b83018261033f565b50505b505050565b600082821c905092915050565b60006103c6600019846008026103a8565b1980831691505092915050565b60006103df83836103b5565b9150826002028217905092915050565b6103f88261019f565b67ffffffffffffffff811115610411576104106101aa565b5b61041b8254610208565b610426828285610362565b600060209050601f8311600181146104595760008415610447578287015190505b61045185826103d3565b8655506104b9565b601f19841661046786610239565b60005b8281101561048f5784890151825560018201915060208501945060208101905061046a565b868310156104ac57848901516104a8601f8916826103b5565b8355505b6001600288020188555050505b505050505050565b6125ed806104d06000396000f3fe608060405234801561001057600080fd5b50600436106101005760003560e01c80636352211e11610097578063b88d4fde11610066578063b88d4fde146102ab578063c87b56dd146102c7578063d0def521146102f7578063e985e9c51461031357610100565b80636352211e1461021157806370a082311461024157806395d89b4114610271578063a22cb4651461028f57610100565b8063095ea7b3116100d3578063095ea7b3146101a157806323b872dd146101bd5780632ee4887e146101d957806342842e0e146101f557610100565b806301ffc9a71461010557806304d5232b1461013557806306fdde0314610153578063081812fc14610171575b600080fd5b61011f600480360381019061011a91906119c7565b610343565b60405161012c9190611a0f565b60405180910390f35b61013d6103a4565b60405161014a9190611a6b565b60405180910390f35b61015b6103ca565b6040516101689190611b16565b60405180910390f35b61018b60048036038101906101869190611b6e565b61045c565b6040516101989190611a6b565b60405180910390f35b6101bb60048036038101906101b69190611bc7565b610478565b005b6101d760048036038101906101d29190611c07565b61048e565b005b6101f360048036038101906101ee9190611c5a565b610590565b005b61020f600480360381019061020a9190611c07565b6105d4565b005b61022b60048036038101906102269190611b6e565b6105f4565b6040516102389190611a6b565b60405180910390f35b61025b60048036038101906102569190611c5a565b610606565b6040516102689190611c96565b60405180910390f35b6102796106c0565b6040516102869190611b16565b60405180910390f35b6102a960048036038101906102a49190611cdd565b610752565b005b6102c560048036038101906102c09190611e52565b610768565b005b6102e160048036038101906102dc9190611b6e565b61078d565b6040516102ee9190611b16565b60405180910390f35b610311600480360381019061030c9190611f76565b6108a0565b005b61032d60048036038101906103289190611fd2565b6109a3565b60405161033a9190611a0f565b60405180910390f35b6000634906490660e01b7bffffffffffffffffffffffffffffffffffffffffffffffffffffffff1916827bffffffffffffffffffffffffffffffffffffffffffffffffffffffff1916148061039d575061039c82610a37565b5b9050919050565b600860009054906101000a900473ffffffffffffffffffffffffffffffffffffffff1681565b6060600080546103d990612041565b80601f016020809104026020016040519081016040528092919081815260200182805461040590612041565b80156104525780601f1061042757610100808354040283529160200191610452565b820191906000526020600020905b81548152906001019060200180831161043557829003601f168201915b5050505050905090565b600061046782610b19565b5061047182610ba1565b9050919050565b61048a8282610485610bde565b610be6565b5050565b600073ffffffffffffffffffffffffffffffffffffffff168273ffffffffffffffffffffffffffffffffffffffff16036105005760006040517f64a0ae920000000000000000000000000000000000000000000000000000000081526004016104f79190611a6b565b60405180910390fd5b6000610514838361050f610bde565b610bf8565b90508373ffffffffffffffffffffffffffffffffffffffff168173ffffffffffffffffffffffffffffffffffffffff161461058a578382826040517f64283d7b00000000000000000000000000000000000000000000000000000000815260040161058193929190612072565b60405180910390fd5b50505050565b80600860006101000a81548173ffffffffffffffffffffffffffffffffffffffff021916908373ffffffffffffffffffffffffffffffffffffffff16021790555050565b6105ef83838360405180602001604052806000815250610768565b505050565b60006105ff82610b19565b9050919050565b60008073ffffffffffffffffffffffffffffffffffffffff168273ffffffffffffffffffffffffffffffffffffffff16036106795760006040517f89c62b640000000000000000000000000000000000000000000000000000000081526004016106709190611a6b565b60405180910390fd5b600360008373ffffffffffffffffffffffffffffffffffffffff1673ffffffffffffffffffffffffffffffffffffffff168152602001908152602001600020549050919050565b6060600180546106cf90612041565b80601f01602080910402602001604051908101604052809291908181526020018280546106fb90612041565b80156107485780601f1061071d57610100808354040283529160200191610748565b820191906000526020600020905b81548152906001019060200180831161072b57829003601f168201915b5050505050905090565b61076461075d610bde565b8383610e12565b5050565b61077384848461048e565b61078761077e610bde565b85858585610f81565b50505050565b606061079882610b19565b5060006006600084815260200190815260200160002080546107b990612041565b80601f01602080910402602001604051908101604052809291908181526020018280546107e590612041565b80156108325780601f1061080757610100808354040283529160200191610832565b820191906000526020600020905b81548152906001019060200180831161081557829003601f168201915b505050505090506000610843611132565b9050600081510361085857819250505061089b565b60008251111561088d5780826040516020016108759291906120e5565b6040516020818303038152906040529250505061089b565b61089684611149565b925050505b919050565b600860009054906101000a900473ffffffffffffffffffffffffffffffffffffffff1673ffffffffffffffffffffffffffffffffffffffff163373ffffffffffffffffffffffffffffffffffffffff1614610930576040517f08c379a00000000000000000000000000000000000000000000000000000000081526004016109279061217b565b60405180910390fd5b6000600754905061094183826111b2565b61094b81836111d0565b60016007600082825461095e91906121ca565b925050819055507fc519703873525524fd8b8723ddd729231f65f0ff4572aeb0d5c46ed7556b103083826040516109969291906121fe565b60405180910390a1505050565b6000600560008473ffffffffffffffffffffffffffffffffffffffff1673ffffffffffffffffffffffffffffffffffffffff16815260200190815260200160002060008373ffffffffffffffffffffffffffffffffffffffff1673ffffffffffffffffffffffffffffffffffffffff16815260200190815260200160002060009054906101000a900460ff16905092915050565b60007f80ac58cd000000000000000000000000000000000000000000000000000000007bffffffffffffffffffffffffffffffffffffffffffffffffffffffff1916827bffffffffffffffffffffffffffffffffffffffffffffffffffffffff19161480610b0257507f5b5e139f000000000000000000000000000000000000000000000000000000007bffffffffffffffffffffffffffffffffffffffffffffffffffffffff1916827bffffffffffffffffffffffffffffffffffffffffffffffffffffffff1916145b80610b125750610b118261122c565b5b9050919050565b600080610b2583611296565b9050600073ffffffffffffffffffffffffffffffffffffffff168173ffffffffffffffffffffffffffffffffffffffff1603610b9857826040517f7e273289000000000000000000000000000000000000000000000000000000008152600401610b8f9190611c96565b60405180910390fd5b80915050919050565b60006004600083815260200190815260200160002060009054906101000a900473ffffffffffffffffffffffffffffffffffffffff169050919050565b600033905090565b610bf383838360016112d3565b505050565b600080610c0484611296565b9050600073ffffffffffffffffffffffffffffffffffffffff168373ffffffffffffffffffffffffffffffffffffffff1614610c4657610c45818486611498565b5b600073ffffffffffffffffffffffffffffffffffffffff168173ffffffffffffffffffffffffffffffffffffffff1614610cd757610c886000856000806112d3565b6001600360008373ffffffffffffffffffffffffffffffffffffffff1673ffffffffffffffffffffffffffffffffffffffff168152602001908152602001600020600082825403925050819055505b600073ffffffffffffffffffffffffffffffffffffffff168573ffffffffffffffffffffffffffffffffffffffff1614610d5a576001600360008773ffffffffffffffffffffffffffffffffffffffff1673ffffffffffffffffffffffffffffffffffffffff168152602001908152602001600020600082825401925050819055505b846002600086815260200190815260200160002060006101000a81548173ffffffffffffffffffffffffffffffffffffffff021916908373ffffffffffffffffffffffffffffffffffffffff160217905550838573ffffffffffffffffffffffffffffffffffffffff168273ffffffffffffffffffffffffffffffffffffffff167fddf252ad1be2c89b69c2b068fc378daa952ba7f163c4a11628f55a4df523b3ef60405160405180910390a4809150509392505050565b600073ffffffffffffffffffffffffffffffffffffffff168273ffffffffffffffffffffffffffffffffffffffff1603610e8357816040517f5b08ba18000000000000000000000000000000000000000000000000000000008152600401610e7a9190611a6b565b60405180910390fd5b80600560008573ffffffffffffffffffffffffffffffffffffffff1673ffffffffffffffffffffffffffffffffffffffff16815260200190815260200160002060008473ffffffffffffffffffffffffffffffffffffffff1673ffffffffffffffffffffffffffffffffffffffff16815260200190815260200160002060006101000a81548160ff0219169083151502179055508173ffffffffffffffffffffffffffffffffffffffff168373ffffffffffffffffffffffffffffffffffffffff167f17307eab39ab6107e8899845ad3d59bd9653f200f220920489ca2b5937696c3183604051610f749190611a0f565b60405180910390a3505050565b60008373ffffffffffffffffffffffffffffffffffffffff163b111561112b578273ffffffffffffffffffffffffffffffffffffffff1663150b7a02868685856040518563ffffffff1660e01b8152600401610fe0949392919061227c565b6020604051808303816000875af192505050801561101c57506040513d601f19601f8201168201806040525081019061101991906122dd565b60015b6110a0573d806000811461104c576040519150601f19603f3d011682016040523d82523d6000602084013e611051565b606091505b50600081510361109857836040517f64a0ae9200000000000000000000000000000000000000000000000000000000815260040161108f9190611a6b565b60405180910390fd5b805181602001fd5b63150b7a0260e01b7bffffffffffffffffffffffffffffffffffffffffffffffffffffffff1916817bffffffffffffffffffffffffffffffffffffffffffffffffffffffff19161461112957836040517f64a0ae920000000000000000000000000000000000000000000000000000000081526004016111209190611a6b565b60405180910390fd5b505b5050505050565b606060405180602001604052806000815250905090565b606061115482610b19565b50600061115f611132565b9050600081511161117f57604051806020016040528060008152506111aa565b806111898461155c565b60405160200161119a9291906120e5565b6040516020818303038152906040525b915050919050565b6111cc82826040518060200160405280600081525061162a565b5050565b806006600084815260200190815260200160002090816111f091906124b6565b507ff8e1a15aba9398e019f0b49df1a4fde98ee17ae345cb5f6b5e2c27f5033e8ce7826040516112209190611c96565b60405180910390a15050565b60007f01ffc9a7000000000000000000000000000000000000000000000000000000007bffffffffffffffffffffffffffffffffffffffffffffffffffffffff1916827bffffffffffffffffffffffffffffffffffffffffffffffffffffffff1916149050919050565b60006002600083815260200190815260200160002060009054906101000a900473ffffffffffffffffffffffffffffffffffffffff169050919050565b808061130c5750600073ffffffffffffffffffffffffffffffffffffffff168273ffffffffffffffffffffffffffffffffffffffff1614155b1561144057600061131c84610b19565b9050600073ffffffffffffffffffffffffffffffffffffffff168373ffffffffffffffffffffffffffffffffffffffff161415801561138757508273ffffffffffffffffffffffffffffffffffffffff168173ffffffffffffffffffffffffffffffffffffffff1614155b801561139a575061139881846109a3565b155b156113dc57826040517fa9fbf51f0000000000000000000000000000000000000000000000000000000081526004016113d39190611a6b565b60405180910390fd5b811561143e57838573ffffffffffffffffffffffffffffffffffffffff168273ffffffffffffffffffffffffffffffffffffffff167f8c5be1e5ebec7d5bd14f71427d1e84f3dd0314c0f7b2291e5b200ac8c7c3b92560405160405180910390a45b505b836004600085815260200190815260200160002060006101000a81548173ffffffffffffffffffffffffffffffffffffffff021916908373ffffffffffffffffffffffffffffffffffffffff16021790555050505050565b6114a383838361164e565b61155757600073ffffffffffffffffffffffffffffffffffffffff168373ffffffffffffffffffffffffffffffffffffffff160361151857806040517f7e27328900000000000000000000000000000000000000000000000000000000815260040161150f9190611c96565b60405180910390fd5b81816040517f177e802f00000000000000000000000000000000000000000000000000000000815260040161154e9291906121fe565b60405180910390fd5b505050565b60606000600161156b8461170f565b01905060008167ffffffffffffffff81111561158a57611589611d27565b5b6040519080825280601f01601f1916602001820160405280156115bc5781602001600182028036833780820191505090505b509050600082602001820190505b60011561161f578080600190039150507f3031323334353637383961626364656600000000000000000000000000000000600a86061a8153600a858161161357611612612588565b5b049450600085036115ca575b819350505050919050565b6116348383611862565b61164961163f610bde565b6000858585610f81565b505050565b60008073ffffffffffffffffffffffffffffffffffffffff168373ffffffffffffffffffffffffffffffffffffffff161415801561170657508273ffffffffffffffffffffffffffffffffffffffff168473ffffffffffffffffffffffffffffffffffffffff1614806116c757506116c684846109a3565b5b8061170557508273ffffffffffffffffffffffffffffffffffffffff166116ed83610ba1565b73ffffffffffffffffffffffffffffffffffffffff16145b5b90509392505050565b600080600090507a184f03e93ff9f4daa797ed6e38ed64bf6a1f010000000000000000831061176d577a184f03e93ff9f4daa797ed6e38ed64bf6a1f010000000000000000838161176357611762612588565b5b0492506040810190505b6d04ee2d6d415b85acef810000000083106117aa576d04ee2d6d415b85acef810000000083816117a05761179f612588565b5b0492506020810190505b662386f26fc1000083106117d957662386f26fc1000083816117cf576117ce612588565b5b0492506010810190505b6305f5e1008310611802576305f5e10083816117f8576117f7612588565b5b0492506008810190505b612710831061182757612710838161181d5761181c612588565b5b0492506004810190505b6064831061184a57606483816118405761183f612588565b5b0492506002810190505b600a8310611859576001810190505b80915050919050565b600073ffffffffffffffffffffffffffffffffffffffff168273ffffffffffffffffffffffffffffffffffffffff16036118d45760006040517f64a0ae920000000000000000000000000000000000000000000000000000000081526004016118cb9190611a6b565b60405180910390fd5b60006118e283836000610bf8565b9050600073ffffffffffffffffffffffffffffffffffffffff168173ffffffffffffffffffffffffffffffffffffffff16146119565760006040517f73c6ac6e00000000000000000000000000000000000000000000000000000000815260040161194d9190611a6b565b60405180910390fd5b505050565b6000604051905090565b600080fd5b600080fd5b60007fffffffff0000000000000000000000000000000000000000000000000000000082169050919050565b6119a48161196f565b81146119af57600080fd5b50565b6000813590506119c18161199b565b92915050565b6000602082840312156119dd576119dc611965565b5b60006119eb848285016119b2565b91505092915050565b60008115159050919050565b611a09816119f4565b82525050565b6000602082019050611a246000830184611a00565b92915050565b600073ffffffffffffffffffffffffffffffffffffffff82169050919050565b6000611a5582611a2a565b9050919050565b611a6581611a4a565b82525050565b6000602082019050611a806000830184611a5c565b92915050565b600081519050919050565b600082825260208201905092915050565b60005b83811015611ac0578082015181840152602081019050611aa5565b60008484015250505050565b6000601f19601f8301169050919050565b6000611ae882611a86565b611af28185611a91565b9350611b02818560208601611aa2565b611b0b81611acc565b840191505092915050565b60006020820190508181036000830152611b308184611add565b905092915050565b6000819050919050565b611b4b81611b38565b8114611b5657600080fd5b50565b600081359050611b6881611b42565b92915050565b600060208284031215611b8457611b83611965565b5b6000611b9284828501611b59565b91505092915050565b611ba481611a4a565b8114611baf57600080fd5b50565b600081359050611bc181611b9b565b92915050565b60008060408385031215611bde57611bdd611965565b5b6000611bec85828601611bb2565b9250506020611bfd85828601611b59565b9150509250929050565b600080600060608486031215611c2057611c1f611965565b5b6000611c2e86828701611bb2565b9350506020611c3f86828701611bb2565b9250506040611c5086828701611b59565b9150509250925092565b600060208284031215611c7057611c6f611965565b5b6000611c7e84828501611bb2565b91505092915050565b611c9081611b38565b82525050565b6000602082019050611cab6000830184611c87565b92915050565b611cba816119f4565b8114611cc557600080fd5b50565b600081359050611cd781611cb1565b92915050565b60008060408385031215611cf457611cf3611965565b5b6000611d0285828601611bb2565b9250506020611d1385828601611cc8565b9150509250929050565b600080fd5b600080fd5b7f4e487b7100000000000000000000000000000000000000000000000000000000600052604160045260246000fd5b611d5f82611acc565b810181811067ffffffffffffffff82111715611d7e57611d7d611d27565b5b80604052505050565b6000611d9161195b565b9050611d9d8282611d56565b919050565b600067ffffffffffffffff821115611dbd57611dbc611d27565b5b611dc682611acc565b9050602081019050919050565b82818337600083830152505050565b6000611df5611df084611da2565b611d87565b905082815260208101848484011115611e1157611e10611d22565b5b611e1c848285611dd3565b509392505050565b600082601f830112611e3957611e38611d1d565b5b8135611e49848260208601611de2565b91505092915050565b60008060008060808587031215611e6c57611e6b611965565b5b6000611e7a87828801611bb2565b9450506020611e8b87828801611bb2565b9350506040611e9c87828801611b59565b925050606085013567ffffffffffffffff811115611ebd57611ebc61196a565b5b611ec987828801611e24565b91505092959194509250565b600067ffffffffffffffff821115611ef057611eef611d27565b5b611ef982611acc565b9050602081019050919050565b6000611f19611f1484611ed5565b611d87565b905082815260208101848484011115611f3557611f34611d22565b5b611f40848285611dd3565b509392505050565b600082601f830112611f5d57611f5c611d1d565b5b8135611f6d848260208601611f06565b91505092915050565b60008060408385031215611f8d57611f8c611965565b5b6000611f9b85828601611bb2565b925050602083013567ffffffffffffffff811115611fbc57611fbb61196a565b5b611fc885828601611f48565b9150509250929050565b60008060408385031215611fe957611fe8611965565b5b6000611ff785828601611bb2565b925050602061200885828601611bb2565b9150509250929050565b7f4e487b7100000000000000000000000000000000000000000000000000000000600052602260045260246000fd5b6000600282049050600182168061205957607f821691505b60208210810361206c5761206b612012565b5b50919050565b60006060820190506120876000830186611a5c565b6120946020830185611c87565b6120a16040830184611a5c565b949350505050565b600081905092915050565b60006120bf82611a86565b6120c981856120a9565b93506120d9818560208601611aa2565b80840191505092915050565b60006120f182856120b4565b91506120fd82846120b4565b91508190509392505050565b7f4f6e6c79206d756c746973696720697320617574686f72697a656420746f206d60008201527f696e740000000000000000000000000000000000000000000000000000000000602082015250565b6000612165602383611a91565b915061217082612109565b604082019050919050565b6000602082019050818103600083015261219481612158565b9050919050565b7f4e487b7100000000000000000000000000000000000000000000000000000000600052601160045260246000fd5b60006121d582611b38565b91506121e083611b38565b92508282019050808211156121f8576121f761219b565b5b92915050565b60006040820190506122136000830185611a5c565b6122206020830184611c87565b9392505050565b600081519050919050565b600082825260208201905092915050565b600061224e82612227565b6122588185612232565b9350612268818560208601611aa2565b61227181611acc565b840191505092915050565b60006080820190506122916000830187611a5c565b61229e6020830186611a5c565b6122ab6040830185611c87565b81810360608301526122bd8184612243565b905095945050505050565b6000815190506122d78161199b565b92915050565b6000602082840312156122f3576122f2611965565b5b6000612301848285016122c8565b91505092915050565b60008190508160005260206000209050919050565b60006020601f8301049050919050565b600082821b905092915050565b60006008830261236c7fffffffffffffffffffffffffffffffffffffffffffffffffffffffffffffffff8261232f565b612376868361232f565b95508019841693508086168417925050509392505050565b6000819050919050565b60006123b36123ae6123a984611b38565b61238e565b611b38565b9050919050565b6000819050919050565b6123cd83612398565b6123e16123d9826123ba565b84845461233c565b825550505050565b600090565b6123f66123e9565b6124018184846123c4565b505050565b5b818110156124255761241a6000826123ee565b600181019050612407565b5050565b601f82111561246a5761243b8161230a565b6124448461231f565b81016020851015612453578190505b61246761245f8561231f565b830182612406565b50505b505050565b600082821c905092915050565b600061248d6000198460080261246f565b1980831691505092915050565b60006124a6838361247c565b9150826002028217905092915050565b6124bf82611a86565b67ffffffffffffffff8111156124d8576124d7611d27565b5b6124e28254612041565b6124ed828285612429565b600060209050601f831160018114612520576000841561250e578287015190505b612518858261249a565b865550612580565b601f19841661252e8661230a565b60005b8281101561255657848901518255600182019150602085019450602081019050612531565b86831015612573578489015161256f601f89168261247c565b8355505b6001600288020188555050505b505050505050565b7f4e487b7100000000000000000000000000000000000000000000000000000000600052601260045260246000fdfea2646970667358221220f6d711f05c60359877a60c69c70c071378fd1d6d2dcf0c52a460f0e53fb6686f64736f6c634300081c0033","opcodes":"PUSH1 0x80 PUSH1 0x40 MSTORE CALLVALUE DUP1 ISZERO PUSH2 0x10 JUMPI PUSH1 0x0 DUP1 REVERT JUMPDEST POP PUSH1 0x40 MLOAD PUSH2 0x2ABD CODESIZE SUB DUP1 PUSH2 0x2ABD DUP4 CODECOPY DUP2 DUP2 ADD PUSH1 0x40 MSTORE DUP2 ADD SWAP1 PUSH2 0x32 SWAP2 SWAP1 PUSH2 0x172 JUMP JUMPDEST PUSH1 0x40 MLOAD DUP1 PUSH1 0x40 ADD PUSH1 0x40 MSTORE DUP1 PUSH1 0x7 DUP2 MSTORE PUSH1 0x20 ADD PUSH32 0x4E65774974656D00000000000000000000000000000000000000000000000000 DUP2 MSTORE POP PUSH1 0x40 MLOAD DUP1 PUSH1 0x40 ADD PUSH1 0x40 MSTORE DUP1 PUSH1 0x4 DUP2 MSTORE PUSH1 0x20 ADD PUSH32 0x4D4E465400000000000000000000000000000000000000000000000000000000 DUP2 MSTORE POP DUP2 PUSH1 0x0 SWAP1 DUP2 PUSH2 0xAD SWAP2 SWAP1 PUSH2 0x3EF JUMP JUMPDEST POP DUP1 PUSH1 0x1 SWAP1 DUP2 PUSH2 0xBD SWAP2 SWAP1 PUSH2 0x3EF JUMP JUMPDEST POP POP POP PUSH1 0x1 PUSH1 0x7 DUP2 SWAP1 SSTORE POP DUP1 PUSH1 0x8 PUSH1 0x0 PUSH2 0x100 EXP DUP2 SLOAD DUP2 PUSH20 0xFFFFFFFFFFFFFFFFFFFFFFFFFFFFFFFFFFFFFFFF MUL NOT AND SWAP1 DUP4 PUSH20 0xFFFFFFFFFFFFFFFFFFFFFFFFFFFFFFFFFFFFFFFF AND MUL OR SWAP1 SSTORE POP POP PUSH2 0x4C1 JUMP JUMPDEST PUSH1 0x0 DUP1 REVERT JUMPDEST PUSH1 0x0 PUSH20 0xFFFFFFFFFFFFFFFFFFFFFFFFFFFFFFFFFFFFFFFF DUP3 AND SWAP1 POP SWAP2 SWAP1 POP JUMP JUMPDEST PUSH1 0x0 PUSH2 0x13F DUP3 PUSH2 0x114 JUMP JUMPDEST SWAP1 POP SWAP2 SWAP1 POP JUMP JUMPDEST PUSH2 0x14F DUP2 PUSH2 0x134 JUMP JUMPDEST DUP2 EQ PUSH2 0x15A JUMPI PUSH1 0x0 DUP1 REVERT JUMPDEST POP JUMP JUMPDEST PUSH1 0x0 DUP2 MLOAD SWAP1 POP PUSH2 0x16C DUP2 PUSH2 0x146 JUMP JUMPDEST SWAP3 SWAP2 POP POP JUMP JUMPDEST PUSH1 0x0 PUSH1 0x20 DUP3 DUP5 SUB SLT ISZERO PUSH2 0x188 JUMPI PUSH2 0x187 PUSH2 0x10F JUMP JUMPDEST JUMPDEST PUSH1 0x0 PUSH2 0x196 DUP5 DUP3 DUP6 ADD PUSH2 0x15D JUMP JUMPDEST SWAP2 POP POP SWAP3 SWAP2 POP POP JUMP JUMPDEST PUSH1 0x0 DUP2 MLOAD SWAP1 POP SWAP2 SWAP1 POP JUMP JUMPDEST PUSH32 0x4E487B7100000000000000000000000000000000000000000000000000000000 PUSH1 0x0 MSTORE PUSH1 0x41 PUSH1 0x4 MSTORE PUSH1 0x24 PUSH1 0x0 REVERT JUMPDEST PUSH32 0x4E487B7100000000000000000000000000000000000000000000000000000000 PUSH1 0x0 MSTORE PUSH1 0x22 PUSH1 0x4 MSTORE PUSH1 0x24 PUSH1 0x0 REVERT JUMPDEST PUSH1 0x0 PUSH1 0x2 DUP3 DIV SWAP1 POP PUSH1 0x1 DUP3 AND DUP1 PUSH2 0x220 JUMPI PUSH1 0x7F DUP3 AND SWAP2 POP JUMPDEST PUSH1 0x20 DUP3 LT DUP2 SUB PUSH2 0x233 JUMPI PUSH2 0x232 PUSH2 0x1D9 JUMP JUMPDEST JUMPDEST POP SWAP2 SWAP1 POP JUMP JUMPDEST PUSH1 0x0 DUP2 SWAP1 POP DUP2 PUSH1 0x0 MSTORE PUSH1 0x20 PUSH1 0x0 KECCAK256 SWAP1 POP SWAP2 SWAP1 POP JUMP JUMPDEST PUSH1 0x0 PUSH1 0x20 PUSH1 0x1F DUP4 ADD DIV SWAP1 POP SWAP2 SWAP1 POP JUMP JUMPDEST PUSH1 0x0 DUP3 DUP3 SHL SWAP1 POP SWAP3 SWAP2 POP POP JUMP JUMPDEST PUSH1 0x0 PUSH1 0x8 DUP4 MUL PUSH2 0x29B PUSH32 0xFFFFFFFFFFFFFFFFFFFFFFFFFFFFFFFFFFFFFFFFFFFFFFFFFFFFFFFFFFFFFFFF DUP3 PUSH2 0x25E JUMP JUMPDEST PUSH2 0x2A5 DUP7 DUP4 PUSH2 0x25E JUMP JUMPDEST SWAP6 POP DUP1 NOT DUP5 AND SWAP4 POP DUP1 DUP7 AND DUP5 OR SWAP3 POP POP POP SWAP4 SWAP3 POP POP POP JUMP JUMPDEST PUSH1 0x0 DUP2 SWAP1 POP SWAP2 SWAP1 POP JUMP JUMPDEST PUSH1 0x0 DUP2 SWAP1 POP SWAP2 SWAP1 POP JUMP JUMPDEST PUSH1 0x0 PUSH2 0x2EC PUSH2 0x2E7 PUSH2 0x2E2 DUP5 PUSH2 0x2BD JUMP JUMPDEST PUSH2 0x2C7 JUMP JUMPDEST PUSH2 0x2BD JUMP JUMPDEST SWAP1 POP SWAP2 SWAP1 POP JUMP JUMPDEST PUSH1 0x0 DUP2 SWAP1 POP SWAP2 SWAP1 POP JUMP JUMPDEST PUSH2 0x306 DUP4 PUSH2 0x2D1 JUMP JUMPDEST PUSH2 0x31A PUSH2 0x312 DUP3 PUSH2 0x2F3 JUMP JUMPDEST DUP5 DUP5 SLOAD PUSH2 0x26B JUMP JUMPDEST DUP3 SSTORE POP POP POP POP JUMP JUMPDEST PUSH1 0x0 SWAP1 JUMP JUMPDEST PUSH2 0x32F PUSH2 0x322 JUMP JUMPDEST PUSH2 0x33A DUP2 DUP5 DUP5 PUSH2 0x2FD JUMP JUMPDEST POP POP POP JUMP JUMPDEST JUMPDEST DUP2 DUP2 LT ISZERO PUSH2 0x35E JUMPI PUSH2 0x353 PUSH1 0x0 DUP3 PUSH2 0x327 JUMP JUMPDEST PUSH1 0x1 DUP2 ADD SWAP1 POP PUSH2 0x340 JUMP JUMPDEST POP POP JUMP JUMPDEST PUSH1 0x1F DUP3 GT ISZERO PUSH2 0x3A3 JUMPI PUSH2 0x374 DUP2 PUSH2 0x239 JUMP JUMPDEST PUSH2 0x37D DUP5 PUSH2 0x24E JUMP JUMPDEST DUP2 ADD PUSH1 0x20 DUP6 LT ISZERO PUSH2 0x38C JUMPI DUP2 SWAP1 POP JUMPDEST PUSH2 0x3A0 PUSH2 0x398 DUP6 PUSH2 0x24E JUMP JUMPDEST DUP4 ADD DUP3 PUSH2 0x33F JUMP JUMPDEST POP POP JUMPDEST POP POP POP JUMP JUMPDEST PUSH1 0x0 DUP3 DUP3 SHR SWAP1 POP SWAP3 SWAP2 POP POP JUMP JUMPDEST PUSH1 0x0 PUSH2 0x3C6 PUSH1 0x0 NOT DUP5 PUSH1 0x8 MUL PUSH2 0x3A8 JUMP JUMPDEST NOT DUP1 DUP4 AND SWAP2 POP POP SWAP3 SWAP2 POP POP JUMP JUMPDEST PUSH1 0x0 PUSH2 0x3DF DUP4 DUP4 PUSH2 0x3B5 JUMP JUMPDEST SWAP2 POP DUP3 PUSH1 0x2 MUL DUP3 OR SWAP1 POP SWAP3 SWAP2 POP POP JUMP JUMPDEST PUSH2 0x3F8 DUP3 PUSH2 0x19F JUMP JUMPDEST PUSH8 0xFFFFFFFFFFFFFFFF DUP2 GT ISZERO PUSH2 0x411 JUMPI PUSH2 0x410 PUSH2 0x1AA JUMP JUMPDEST JUMPDEST PUSH2 0x41B DUP3 SLOAD PUSH2 0x208 JUMP JUMPDEST PUSH2 0x426 DUP3 DUP3 DUP6 PUSH2 0x362 JUMP JUMPDEST PUSH1 0x0 PUSH1 0x20 SWAP1 POP PUSH1 0x1F DUP4 GT PUSH1 0x1 DUP2 EQ PUSH2 0x459 JUMPI PUSH1 0x0 DUP5 ISZERO PUSH2 0x447 JUMPI DUP3 DUP8 ADD MLOAD SWAP1 POP JUMPDEST PUSH2 0x451 DUP6 DUP3 PUSH2 0x3D3 JUMP JUMPDEST DUP7 SSTORE POP PUSH2 0x4B9 JUMP JUMPDEST PUSH1 0x1F NOT DUP5 AND PUSH2 0x467 DUP7 PUSH2 0x239 JUMP JUMPDEST PUSH1 0x0 JUMPDEST DUP3 DUP2 LT ISZERO PUSH2 0x48F JUMPI DUP5 DUP10 ADD MLOAD DUP3 SSTORE PUSH1 0x1 DUP3 ADD SWAP2 POP PUSH1 0x20 DUP6 ADD SWAP5 POP PUSH1 0x20 DUP2 ADD SWAP1 POP PUSH2 0x46A JUMP JUMPDEST DUP7 DUP4 LT ISZERO PUSH2 0x4AC JUMPI DUP5 DUP10 ADD MLOAD PUSH2 0x4A8 PUSH1 0x1F DUP10 AND DUP3 PUSH2 0x3B5 JUMP JUMPDEST DUP4 SSTORE POP JUMPDEST PUSH1 0x1 PUSH1 0x2 DUP9 MUL ADD DUP9 SSTORE POP POP POP JUMPDEST POP POP POP POP POP POP JUMP JUMPDEST PUSH2 0x25ED DUP1 PUSH2 0x4D0 PUSH1 0x0 CODECOPY PUSH1 0x0 RETURN INVALID PUSH1 0x80 PUSH1 0x40 MSTORE CALLVALUE DUP1 ISZERO PUSH2 0x10 JUMPI PUSH1 0x0 DUP1 REVERT JUMPDEST POP PUSH1 0x4 CALLDATASIZE LT PUSH2 0x100 JUMPI PUSH1 0x0 CALLDATALOAD PUSH1 0xE0 SHR DUP1 PUSH4 0x6352211E GT PUSH2 0x97 JUMPI DUP1 PUSH4 0xB88D4FDE GT PUSH2 0x66 JUMPI DUP1 PUSH4 0xB88D4FDE EQ PUSH2 0x2AB JUMPI DUP1 PUSH4 0xC87B56DD EQ PUSH2 0x2C7 JUMPI DUP1 PUSH4 0xD0DEF521 EQ PUSH2 0x2F7 JUMPI DUP1 PUSH4 0xE985E9C5 EQ PUSH2 0x313 JUMPI PUSH2 0x100 JUMP JUMPDEST DUP1 PUSH4 0x6352211E EQ PUSH2 0x211 JUMPI DUP1 PUSH4 0x70A08231 EQ PUSH2 0x241 JUMPI DUP1 PUSH4 0x95D89B41 EQ PUSH2 0x271 JUMPI DUP1 PUSH4 0xA22CB465 EQ PUSH2 0x28F JUMPI PUSH2 0x100 JUMP JUMPDEST DUP1 PUSH4 0x95EA7B3 GT PUSH2 0xD3 JUMPI DUP1 PUSH4 0x95EA7B3 EQ PUSH2 0x1A1 JUMPI DUP1 PUSH4 0x23B872DD EQ PUSH2 0x1BD JUMPI DUP1 PUSH4 0x2EE4887E EQ PUSH2 0x1D9 JUMPI DUP1 PUSH4 0x42842E0E EQ PUSH2 0x1F5 JUMPI PUSH2 0x100 JUMP JUMPDEST DUP1 PUSH4 0x1FFC9A7 EQ PUSH2 0x105 JUMPI DUP1 PUSH4 0x4D5232B EQ PUSH2 0x135 JUMPI DUP1 PUSH4 0x6FDDE03 EQ PUSH2 0x153 JUMPI DUP1 PUSH4 0x81812FC EQ PUSH2 0x171 JUMPI JUMPDEST PUSH1 0x0 DUP1 REVERT JUMPDEST PUSH2 0x11F PUSH1 0x4 DUP1 CALLDATASIZE SUB DUP2 ADD SWAP1 PUSH2 0x11A SWAP2 SWAP1 PUSH2 0x19C7 JUMP JUMPDEST PUSH2 0x343 JUMP JUMPDEST PUSH1 0x40 MLOAD PUSH2 0x12C SWAP2 SWAP1 PUSH2 0x1A0F JUMP JUMPDEST PUSH1 0x40 MLOAD DUP1 SWAP2 SUB SWAP1 RETURN JUMPDEST PUSH2 0x13D PUSH2 0x3A4 JUMP JUMPDEST PUSH1 0x40 MLOAD PUSH2 0x14A SWAP2 SWAP1 PUSH2 0x1A6B JUMP JUMPDEST PUSH1 0x40 MLOAD DUP1 SWAP2 SUB SWAP1 RETURN JUMPDEST PUSH2 0x15B PUSH2 0x3CA JUMP JUMPDEST PUSH1 0x40 MLOAD PUSH2 0x168 SWAP2 SWAP1 PUSH2 0x1B16 JUMP JUMPDEST PUSH1 0x40 MLOAD DUP1 SWAP2 SUB SWAP1 RETURN JUMPDEST PUSH2 0x18B PUSH1 0x4 DUP1 CALLDATASIZE SUB DUP2 ADD SWAP1 PUSH2 0x186 SWAP2 SWAP1 PUSH2 0x1B6E JUMP JUMPDEST PUSH2 0x45C JUMP JUMPDEST PUSH1 0x40 MLOAD PUSH2 0x198 SWAP2 SWAP1 PUSH2 0x1A6B JUMP JUMPDEST PUSH1 0x40 MLOAD DUP1 SWAP2 SUB SWAP1 RETURN JUMPDEST PUSH2 0x1BB PUSH1 0x4 DUP1 CALLDATASIZE SUB DUP2 ADD SWAP1 PUSH2 0x1B6 SWAP2 SWAP1 PUSH2 0x1BC7 JUMP JUMPDEST PUSH2 0x478 JUMP JUMPDEST STOP JUMPDEST PUSH2 0x1D7 PUSH1 0x4 DUP1 CALLDATASIZE SUB DUP2 ADD SWAP1 PUSH2 0x1D2 SWAP2 SWAP1 PUSH2 0x1C07 JUMP JUMPDEST PUSH2 0x48E JUMP JUMPDEST STOP JUMPDEST PUSH2 0x1F3 PUSH1 0x4 DUP1 CALLDATASIZE SUB DUP2 ADD SWAP1 PUSH2 0x1EE SWAP2 SWAP1 PUSH2 0x1C5A JUMP JUMPDEST PUSH2 0x590 JUMP JUMPDEST STOP JUMPDEST PUSH2 0x20F PUSH1 0x4 DUP1 CALLDATASIZE SUB DUP2 ADD SWAP1 PUSH2 0x20A SWAP2 SWAP1 PUSH2 0x1C07 JUMP JUMPDEST PUSH2 0x5D4 JUMP JUMPDEST STOP JUMPDEST PUSH2 0x22B PUSH1 0x4 DUP1 CALLDATASIZE SUB DUP2 ADD SWAP1 PUSH2 0x226 SWAP2 SWAP1 PUSH2 0x1B6E JUMP JUMPDEST PUSH2 0x5F4 JUMP JUMPDEST PUSH1 0x40 MLOAD PUSH2 0x238 SWAP2 SWAP1 PUSH2 0x1A6B JUMP JUMPDEST PUSH1 0x40 MLOAD DUP1 SWAP2 SUB SWAP1 RETURN JUMPDEST PUSH2 0x25B PUSH1 0x4 DUP1 CALLDATASIZE SUB DUP2 ADD SWAP1 PUSH2 0x256 SWAP2 SWAP1 PUSH2 0x1C5A JUMP JUMPDEST PUSH2 0x606 JUMP JUMPDEST PUSH1 0x40 MLOAD PUSH2 0x268 SWAP2 SWAP1 PUSH2 0x1C96 JUMP JUMPDEST PUSH1 0x40 MLOAD DUP1 SWAP2 SUB SWAP1 RETURN JUMPDEST PUSH2 0x279 PUSH2 0x6C0 JUMP JUMPDEST PUSH1 0x40 MLOAD PUSH2 0x286 SWAP2 SWAP1 PUSH2 0x1B16 JUMP JUMPDEST PUSH1 0x40 MLOAD DUP1 SWAP2 SUB SWAP1 RETURN JUMPDEST PUSH2 0x2A9 PUSH1 0x4 DUP1 CALLDATASIZE SUB DUP2 ADD SWAP1 PUSH2 0x2A4 SWAP2 SWAP1 PUSH2 0x1CDD JUMP JUMPDEST PUSH2 0x752 JUMP JUMPDEST STOP JUMPDEST PUSH2 0x2C5 PUSH1 0x4 DUP1 CALLDATASIZE SUB DUP2 ADD SWAP1 PUSH2 0x2C0 SWAP2 SWAP1 PUSH2 0x1E52 JUMP JUMPDEST PUSH2 0x768 JUMP JUMPDEST STOP JUMPDEST PUSH2 0x2E1 PUSH1 0x4 DUP1 CALLDATASIZE SUB DUP2 ADD SWAP1 PUSH2 0x2DC SWAP2 SWAP1 PUSH2 0x1B6E JUMP JUMPDEST PUSH2 0x78D JUMP JUMPDEST PUSH1 0x40 MLOAD PUSH2 0x2EE SWAP2 SWAP1 PUSH2 0x1B16 JUMP JUMPDEST PUSH1 0x40 MLOAD DUP1 SWAP2 SUB SWAP1 RETURN JUMPDEST PUSH2 0x311 PUSH1 0x4 DUP1 CALLDATASIZE SUB DUP2 ADD SWAP1 PUSH2 0x30C SWAP2 SWAP1 PUSH2 0x1F76 JUMP JUMPDEST PUSH2 0x8A0 JUMP JUMPDEST STOP JUMPDEST PUSH2 0x32D PUSH1 0x4 DUP1 CALLDATASIZE SUB DUP2 ADD SWAP1 PUSH2 0x328 SWAP2 SWAP1 PUSH2 0x1FD2 JUMP JUMPDEST PUSH2 0x9A3 JUMP JUMPDEST PUSH1 0x40 MLOAD PUSH2 0x33A SWAP2 SWAP1 PUSH2 0x1A0F JUMP JUMPDEST PUSH1 0x40 MLOAD DUP1 SWAP2 SUB SWAP1 RETURN JUMPDEST PUSH1 0x0 PUSH4 0x49064906 PUSH1 0xE0 SHL PUSH28 0xFFFFFFFFFFFFFFFFFFFFFFFFFFFFFFFFFFFFFFFFFFFFFFFFFFFFFFFF NOT AND DUP3 PUSH28 0xFFFFFFFFFFFFFFFFFFFFFFFFFFFFFFFFFFFFFFFFFFFFFFFFFFFFFFFF NOT AND EQ DUP1 PUSH2 0x39D JUMPI POP PUSH2 0x39C DUP3 PUSH2 0xA37 JUMP JUMPDEST JUMPDEST SWAP1 POP SWAP2 SWAP1 POP JUMP JUMPDEST PUSH1 0x8 PUSH1 0x0 SWAP1 SLOAD SWAP1 PUSH2 0x100 EXP SWAP1 DIV PUSH20 0xFFFFFFFFFFFFFFFFFFFFFFFFFFFFFFFFFFFFFFFF AND DUP2 JUMP JUMPDEST PUSH1 0x60 PUSH1 0x0 DUP1 SLOAD PUSH2 0x3D9 SWAP1 PUSH2 0x2041 JUMP JUMPDEST DUP1 PUSH1 0x1F ADD PUSH1 0x20 DUP1 SWAP2 DIV MUL PUSH1 0x20 ADD PUSH1 0x40 MLOAD SWAP1 DUP2 ADD PUSH1 0x40 MSTORE DUP1 SWAP3 SWAP2 SWAP1 DUP2 DUP2 MSTORE PUSH1 0x20 ADD DUP3 DUP1 SLOAD PUSH2 0x405 SWAP1 PUSH2 0x2041 JUMP JUMPDEST DUP1 ISZERO PUSH2 0x452 JUMPI DUP1 PUSH1 0x1F LT PUSH2 0x427 JUMPI PUSH2 0x100 DUP1 DUP4 SLOAD DIV MUL DUP4 MSTORE SWAP2 PUSH1 0x20 ADD SWAP2 PUSH2 0x452 JUMP JUMPDEST DUP3 ADD SWAP2 SWAP1 PUSH1 0x0 MSTORE PUSH1 0x20 PUSH1 0x0 KECCAK256 SWAP1 JUMPDEST DUP2 SLOAD DUP2 MSTORE SWAP1 PUSH1 0x1 ADD SWAP1 PUSH1 0x20 ADD DUP1 DUP4 GT PUSH2 0x435 JUMPI DUP3 SWAP1 SUB PUSH1 0x1F AND DUP3 ADD SWAP2 JUMPDEST POP POP POP POP POP SWAP1 POP SWAP1 JUMP JUMPDEST PUSH1 0x0 PUSH2 0x467 DUP3 PUSH2 0xB19 JUMP JUMPDEST POP PUSH2 0x471 DUP3 PUSH2 0xBA1 JUMP JUMPDEST SWAP1 POP SWAP2 SWAP1 POP JUMP JUMPDEST PUSH2 0x48A DUP3 DUP3 PUSH2 0x485 PUSH2 0xBDE JUMP JUMPDEST PUSH2 0xBE6 JUMP JUMPDEST POP POP JUMP JUMPDEST PUSH1 0x0 PUSH20 0xFFFFFFFFFFFFFFFFFFFFFFFFFFFFFFFFFFFFFFFF AND DUP3 PUSH20 0xFFFFFFFFFFFFFFFFFFFFFFFFFFFFFFFFFFFFFFFF AND SUB PUSH2 0x500 JUMPI PUSH1 0x0 PUSH1 0x40 MLOAD PUSH32 0x64A0AE9200000000000000000000000000000000000000000000000000000000 DUP2 MSTORE PUSH1 0x4 ADD PUSH2 0x4F7 SWAP2 SWAP1 PUSH2 0x1A6B JUMP JUMPDEST PUSH1 0x40 MLOAD DUP1 SWAP2 SUB SWAP1 REVERT JUMPDEST PUSH1 0x0 PUSH2 0x514 DUP4 DUP4 PUSH2 0x50F PUSH2 0xBDE JUMP JUMPDEST PUSH2 0xBF8 JUMP JUMPDEST SWAP1 POP DUP4 PUSH20 0xFFFFFFFFFFFFFFFFFFFFFFFFFFFFFFFFFFFFFFFF AND DUP2 PUSH20 0xFFFFFFFFFFFFFFFFFFFFFFFFFFFFFFFFFFFFFFFF AND EQ PUSH2 0x58A JUMPI DUP4 DUP3 DUP3 PUSH1 0x40 MLOAD PUSH32 0x64283D7B00000000000000000000000000000000000000000000000000000000 DUP2 MSTORE PUSH1 0x4 ADD PUSH2 0x581 SWAP4 SWAP3 SWAP2 SWAP1 PUSH2 0x2072 JUMP JUMPDEST PUSH1 0x40 MLOAD DUP1 SWAP2 SUB SWAP1 REVERT JUMPDEST POP POP POP POP JUMP JUMPDEST DUP1 PUSH1 0x8 PUSH1 0x0 PUSH2 0x100 EXP DUP2 SLOAD DUP2 PUSH20 0xFFFFFFFFFFFFFFFFFFFFFFFFFFFFFFFFFFFFFFFF MUL NOT AND SWAP1 DUP4 PUSH20 0xFFFFFFFFFFFFFFFFFFFFFFFFFFFFFFFFFFFFFFFF AND MUL OR SWAP1 SSTORE POP POP JUMP JUMPDEST PUSH2 0x5EF DUP4 DUP4 DUP4 PUSH1 0x40 MLOAD DUP1 PUSH1 0x20 ADD PUSH1 0x40 MSTORE DUP1 PUSH1 0x0 DUP2 MSTORE POP PUSH2 0x768 JUMP JUMPDEST POP POP POP JUMP JUMPDEST PUSH1 0x0 PUSH2 0x5FF DUP3 PUSH2 0xB19 JUMP JUMPDEST SWAP1 POP SWAP2 SWAP1 POP JUMP JUMPDEST PUSH1 0x0 DUP1 PUSH20 0xFFFFFFFFFFFFFFFFFFFFFFFFFFFFFFFFFFFFFFFF AND DUP3 PUSH20 0xFFFFFFFFFFFFFFFFFFFFFFFFFFFFFFFFFFFFFFFF AND SUB PUSH2 0x679 JUMPI PUSH1 0x0 PUSH1 0x40 MLOAD PUSH32 0x89C62B6400000000000000000000000000000000000000000000000000000000 DUP2 MSTORE PUSH1 0x4 ADD PUSH2 0x670 SWAP2 SWAP1 PUSH2 0x1A6B JUMP JUMPDEST PUSH1 0x40 MLOAD DUP1 SWAP2 SUB SWAP1 REVERT JUMPDEST PUSH1 0x3 PUSH1 0x0 DUP4 PUSH20 0xFFFFFFFFFFFFFFFFFFFFFFFFFFFFFFFFFFFFFFFF AND PUSH20 0xFFFFFFFFFFFFFFFFFFFFFFFFFFFFFFFFFFFFFFFF AND DUP2 MSTORE PUSH1 0x20 ADD SWAP1 DUP2 MSTORE PUSH1 0x20 ADD PUSH1 0x0 KECCAK256 SLOAD SWAP1 POP SWAP2 SWAP1 POP JUMP JUMPDEST PUSH1 0x60 PUSH1 0x1 DUP1 SLOAD PUSH2 0x6CF SWAP1 PUSH2 0x2041 JUMP JUMPDEST DUP1 PUSH1 0x1F ADD PUSH1 0x20 DUP1 SWAP2 DIV MUL PUSH1 0x20 ADD PUSH1 0x40 MLOAD SWAP1 DUP2 ADD PUSH1 0x40 MSTORE DUP1 SWAP3 SWAP2 SWAP1 DUP2 DUP2 MSTORE PUSH1 0x20 ADD DUP3 DUP1 SLOAD PUSH2 0x6FB SWAP1 PUSH2 0x2041 JUMP JUMPDEST DUP1 ISZERO PUSH2 0x748 JUMPI DUP1 PUSH1 0x1F LT PUSH2 0x71D JUMPI PUSH2 0x100 DUP1 DUP4 SLOAD DIV MUL DUP4 MSTORE SWAP2 PUSH1 0x20 ADD SWAP2 PUSH2 0x748 JUMP JUMPDEST DUP3 ADD SWAP2 SWAP1 PUSH1 0x0 MSTORE PUSH1 0x20 PUSH1 0x0 KECCAK256 SWAP1 JUMPDEST DUP2 SLOAD DUP2 MSTORE SWAP1 PUSH1 0x1 ADD SWAP1 PUSH1 0x20 ADD DUP1 DUP4 GT PUSH2 0x72B JUMPI DUP3 SWAP1 SUB PUSH1 0x1F AND DUP3 ADD SWAP2 JUMPDEST POP POP POP POP POP SWAP1 POP SWAP1 JUMP JUMPDEST PUSH2 0x764 PUSH2 0x75D PUSH2 0xBDE JUMP JUMPDEST DUP4 DUP4 PUSH2 0xE12 JUMP JUMPDEST POP POP JUMP JUMPDEST PUSH2 0x773 DUP5 DUP5 DUP5 PUSH2 0x48E JUMP JUMPDEST PUSH2 0x787 PUSH2 0x77E PUSH2 0xBDE JUMP JUMPDEST DUP6 DUP6 DUP6 DUP6 PUSH2 0xF81 JUMP JUMPDEST POP POP POP POP JUMP JUMPDEST PUSH1 0x60 PUSH2 0x798 DUP3 PUSH2 0xB19 JUMP JUMPDEST POP PUSH1 0x0 PUSH1 0x6 PUSH1 0x0 DUP5 DUP2 MSTORE PUSH1 0x20 ADD SWAP1 DUP2 MSTORE PUSH1 0x20 ADD PUSH1 0x0 KECCAK256 DUP1 SLOAD PUSH2 0x7B9 SWAP1 PUSH2 0x2041 JUMP JUMPDEST DUP1 PUSH1 0x1F ADD PUSH1 0x20 DUP1 SWAP2 DIV MUL PUSH1 0x20 ADD PUSH1 0x40 MLOAD SWAP1 DUP2 ADD PUSH1 0x40 MSTORE DUP1 SWAP3 SWAP2 SWAP1 DUP2 DUP2 MSTORE PUSH1 0x20 ADD DUP3 DUP1 SLOAD PUSH2 0x7E5 SWAP1 PUSH2 0x2041 JUMP JUMPDEST DUP1 ISZERO PUSH2 0x832 JUMPI DUP1 PUSH1 0x1F LT PUSH2 0x807 JUMPI PUSH2 0x100 DUP1 DUP4 SLOAD DIV MUL DUP4 MSTORE SWAP2 PUSH1 0x20 ADD SWAP2 PUSH2 0x832 JUMP JUMPDEST DUP3 ADD SWAP2 SWAP1 PUSH1 0x0 MSTORE PUSH1 0x20 PUSH1 0x0 KECCAK256 SWAP1 JUMPDEST DUP2 SLOAD DUP2 MSTORE SWAP1 PUSH1 0x1 ADD SWAP1 PUSH1 0x20 ADD DUP1 DUP4 GT PUSH2 0x815 JUMPI DUP3 SWAP1 SUB PUSH1 0x1F AND DUP3 ADD SWAP2 JUMPDEST POP POP POP POP POP SWAP1 POP PUSH1 0x0 PUSH2 0x843 PUSH2 0x1132 JUMP JUMPDEST SWAP1 POP PUSH1 0x0 DUP2 MLOAD SUB PUSH2 0x858 JUMPI DUP2 SWAP3 POP POP POP PUSH2 0x89B JUMP JUMPDEST PUSH1 0x0 DUP3 MLOAD GT ISZERO PUSH2 0x88D JUMPI DUP1 DUP3 PUSH1 0x40 MLOAD PUSH1 0x20 ADD PUSH2 0x875 SWAP3 SWAP2 SWAP1 PUSH2 0x20E5 JUMP JUMPDEST PUSH1 0x40 MLOAD PUSH1 0x20 DUP2 DUP4 SUB SUB DUP2 MSTORE SWAP1 PUSH1 0x40 MSTORE SWAP3 POP POP POP PUSH2 0x89B JUMP JUMPDEST PUSH2 0x896 DUP5 PUSH2 0x1149 JUMP JUMPDEST SWAP3 POP POP POP JUMPDEST SWAP2 SWAP1 POP JUMP JUMPDEST PUSH1 0x8 PUSH1 0x0 SWAP1 SLOAD SWAP1 PUSH2 0x100 EXP SWAP1 DIV PUSH20 0xFFFFFFFFFFFFFFFFFFFFFFFFFFFFFFFFFFFFFFFF AND PUSH20 0xFFFFFFFFFFFFFFFFFFFFFFFFFFFFFFFFFFFFFFFF AND CALLER PUSH20 0xFFFFFFFFFFFFFFFFFFFFFFFFFFFFFFFFFFFFFFFF AND EQ PUSH2 0x930 JUMPI PUSH1 0x40 MLOAD PUSH32 0x8C379A000000000000000000000000000000000000000000000000000000000 DUP2 MSTORE PUSH1 0x4 ADD PUSH2 0x927 SWAP1 PUSH2 0x217B JUMP JUMPDEST PUSH1 0x40 MLOAD DUP1 SWAP2 SUB SWAP1 REVERT JUMPDEST PUSH1 0x0 PUSH1 0x7 SLOAD SWAP1 POP PUSH2 0x941 DUP4 DUP3 PUSH2 0x11B2 JUMP JUMPDEST PUSH2 0x94B DUP2 DUP4 PUSH2 0x11D0 JUMP JUMPDEST PUSH1 0x1 PUSH1 0x7 PUSH1 0x0 DUP3 DUP3 SLOAD PUSH2 0x95E SWAP2 SWAP1 PUSH2 0x21CA JUMP JUMPDEST SWAP3 POP POP DUP2 SWAP1 SSTORE POP PUSH32 0xC519703873525524FD8B8723DDD729231F65F0FF4572AEB0D5C46ED7556B1030 DUP4 DUP3 PUSH1 0x40 MLOAD PUSH2 0x996 SWAP3 SWAP2 SWAP1 PUSH2 0x21FE JUMP JUMPDEST PUSH1 0x40 MLOAD DUP1 SWAP2 SUB SWAP1 LOG1 POP POP POP JUMP JUMPDEST PUSH1 0x0 PUSH1 0x5 PUSH1 0x0 DUP5 PUSH20 0xFFFFFFFFFFFFFFFFFFFFFFFFFFFFFFFFFFFFFFFF AND PUSH20 0xFFFFFFFFFFFFFFFFFFFFFFFFFFFFFFFFFFFFFFFF AND DUP2 MSTORE PUSH1 0x20 ADD SWAP1 DUP2 MSTORE PUSH1 0x20 ADD PUSH1 0x0 KECCAK256 PUSH1 0x0 DUP4 PUSH20 0xFFFFFFFFFFFFFFFFFFFFFFFFFFFFFFFFFFFFFFFF AND PUSH20 0xFFFFFFFFFFFFFFFFFFFFFFFFFFFFFFFFFFFFFFFF AND DUP2 MSTORE PUSH1 0x20 ADD SWAP1 DUP2 MSTORE PUSH1 0x20 ADD PUSH1 0x0 KECCAK256 PUSH1 0x0 SWAP1 SLOAD SWAP1 PUSH2 0x100 EXP SWAP1 DIV PUSH1 0xFF AND SWAP1 POP SWAP3 SWAP2 POP POP JUMP JUMPDEST PUSH1 0x0 PUSH32 0x80AC58CD00000000000000000000000000000000000000000000000000000000 PUSH28 0xFFFFFFFFFFFFFFFFFFFFFFFFFFFFFFFFFFFFFFFFFFFFFFFFFFFFFFFF NOT AND DUP3 PUSH28 0xFFFFFFFFFFFFFFFFFFFFFFFFFFFFFFFFFFFFFFFFFFFFFFFFFFFFFFFF NOT AND EQ DUP1 PUSH2 0xB02 JUMPI POP PUSH32 0x5B5E139F00000000000000000000000000000000000000000000000000000000 PUSH28 0xFFFFFFFFFFFFFFFFFFFFFFFFFFFFFFFFFFFFFFFFFFFFFFFFFFFFFFFF NOT AND DUP3 PUSH28 0xFFFFFFFFFFFFFFFFFFFFFFFFFFFFFFFFFFFFFFFFFFFFFFFFFFFFFFFF NOT AND EQ JUMPDEST DUP1 PUSH2 0xB12 JUMPI POP PUSH2 0xB11 DUP3 PUSH2 0x122C JUMP JUMPDEST JUMPDEST SWAP1 POP SWAP2 SWAP1 POP JUMP JUMPDEST PUSH1 0x0 DUP1 PUSH2 0xB25 DUP4 PUSH2 0x1296 JUMP JUMPDEST SWAP1 POP PUSH1 0x0 PUSH20 0xFFFFFFFFFFFFFFFFFFFFFFFFFFFFFFFFFFFFFFFF AND DUP2 PUSH20 0xFFFFFFFFFFFFFFFFFFFFFFFFFFFFFFFFFFFFFFFF AND SUB PUSH2 0xB98 JUMPI DUP3 PUSH1 0x40 MLOAD PUSH32 0x7E27328900000000000000000000000000000000000000000000000000000000 DUP2 MSTORE PUSH1 0x4 ADD PUSH2 0xB8F SWAP2 SWAP1 PUSH2 0x1C96 JUMP JUMPDEST PUSH1 0x40 MLOAD DUP1 SWAP2 SUB SWAP1 REVERT JUMPDEST DUP1 SWAP2 POP POP SWAP2 SWAP1 POP JUMP JUMPDEST PUSH1 0x0 PUSH1 0x4 PUSH1 0x0 DUP4 DUP2 MSTORE PUSH1 0x20 ADD SWAP1 DUP2 MSTORE PUSH1 0x20 ADD PUSH1 0x0 KECCAK256 PUSH1 0x0 SWAP1 SLOAD SWAP1 PUSH2 0x100 EXP SWAP1 DIV PUSH20 0xFFFFFFFFFFFFFFFFFFFFFFFFFFFFFFFFFFFFFFFF AND SWAP1 POP SWAP2 SWAP1 POP JUMP JUMPDEST PUSH1 0x0 CALLER SWAP1 POP SWAP1 JUMP JUMPDEST PUSH2 0xBF3 DUP4 DUP4 DUP4 PUSH1 0x1 PUSH2 0x12D3 JUMP JUMPDEST POP POP POP JUMP JUMPDEST PUSH1 0x0 DUP1 PUSH2 0xC04 DUP5 PUSH2 0x1296 JUMP JUMPDEST SWAP1 POP PUSH1 0x0 PUSH20 0xFFFFFFFFFFFFFFFFFFFFFFFFFFFFFFFFFFFFFFFF AND DUP4 PUSH20 0xFFFFFFFFFFFFFFFFFFFFFFFFFFFFFFFFFFFFFFFF AND EQ PUSH2 0xC46 JUMPI PUSH2 0xC45 DUP2 DUP5 DUP7 PUSH2 0x1498 JUMP JUMPDEST JUMPDEST PUSH1 0x0 PUSH20 0xFFFFFFFFFFFFFFFFFFFFFFFFFFFFFFFFFFFFFFFF AND DUP2 PUSH20 0xFFFFFFFFFFFFFFFFFFFFFFFFFFFFFFFFFFFFFFFF AND EQ PUSH2 0xCD7 JUMPI PUSH2 0xC88 PUSH1 0x0 DUP6 PUSH1 0x0 DUP1 PUSH2 0x12D3 JUMP JUMPDEST PUSH1 0x1 PUSH1 0x3 PUSH1 0x0 DUP4 PUSH20 0xFFFFFFFFFFFFFFFFFFFFFFFFFFFFFFFFFFFFFFFF AND PUSH20 0xFFFFFFFFFFFFFFFFFFFFFFFFFFFFFFFFFFFFFFFF AND DUP2 MSTORE PUSH1 0x20 ADD SWAP1 DUP2 MSTORE PUSH1 0x20 ADD PUSH1 0x0 KECCAK256 PUSH1 0x0 DUP3 DUP3 SLOAD SUB SWAP3 POP POP DUP2 SWAP1 SSTORE POP JUMPDEST PUSH1 0x0 PUSH20 0xFFFFFFFFFFFFFFFFFFFFFFFFFFFFFFFFFFFFFFFF AND DUP6 PUSH20 0xFFFFFFFFFFFFFFFFFFFFFFFFFFFFFFFFFFFFFFFF AND EQ PUSH2 0xD5A JUMPI PUSH1 0x1 PUSH1 0x3 PUSH1 0x0 DUP8 PUSH20 0xFFFFFFFFFFFFFFFFFFFFFFFFFFFFFFFFFFFFFFFF AND PUSH20 0xFFFFFFFFFFFFFFFFFFFFFFFFFFFFFFFFFFFFFFFF AND DUP2 MSTORE PUSH1 0x20 ADD SWAP1 DUP2 MSTORE PUSH1 0x20 ADD PUSH1 0x0 KECCAK256 PUSH1 0x0 DUP3 DUP3 SLOAD ADD SWAP3 POP POP DUP2 SWAP1 SSTORE POP JUMPDEST DUP5 PUSH1 0x2 PUSH1 0x0 DUP7 DUP2 MSTORE PUSH1 0x20 ADD SWAP1 DUP2 MSTORE PUSH1 0x20 ADD PUSH1 0x0 KECCAK256 PUSH1 0x0 PUSH2 0x100 EXP DUP2 SLOAD DUP2 PUSH20 0xFFFFFFFFFFFFFFFFFFFFFFFFFFFFFFFFFFFFFFFF MUL NOT AND SWAP1 DUP4 PUSH20 0xFFFFFFFFFFFFFFFFFFFFFFFFFFFFFFFFFFFFFFFF AND MUL OR SWAP1 SSTORE POP DUP4 DUP6 PUSH20 0xFFFFFFFFFFFFFFFFFFFFFFFFFFFFFFFFFFFFFFFF AND DUP3 PUSH20 0xFFFFFFFFFFFFFFFFFFFFFFFFFFFFFFFFFFFFFFFF AND PUSH32 0xDDF252AD1BE2C89B69C2B068FC378DAA952BA7F163C4A11628F55A4DF523B3EF PUSH1 0x40 MLOAD PUSH1 0x40 MLOAD DUP1 SWAP2 SUB SWAP1 LOG4 DUP1 SWAP2 POP POP SWAP4 SWAP3 POP POP POP JUMP JUMPDEST PUSH1 0x0 PUSH20 0xFFFFFFFFFFFFFFFFFFFFFFFFFFFFFFFFFFFFFFFF AND DUP3 PUSH20 0xFFFFFFFFFFFFFFFFFFFFFFFFFFFFFFFFFFFFFFFF AND SUB PUSH2 0xE83 JUMPI DUP2 PUSH1 0x40 MLOAD PUSH32 0x5B08BA1800000000000000000000000000000000000000000000000000000000 DUP2 MSTORE PUSH1 0x4 ADD PUSH2 0xE7A SWAP2 SWAP1 PUSH2 0x1A6B JUMP JUMPDEST PUSH1 0x40 MLOAD DUP1 SWAP2 SUB SWAP1 REVERT JUMPDEST DUP1 PUSH1 0x5 PUSH1 0x0 DUP6 PUSH20 0xFFFFFFFFFFFFFFFFFFFFFFFFFFFFFFFFFFFFFFFF AND PUSH20 0xFFFFFFFFFFFFFFFFFFFFFFFFFFFFFFFFFFFFFFFF AND DUP2 MSTORE PUSH1 0x20 ADD SWAP1 DUP2 MSTORE PUSH1 0x20 ADD PUSH1 0x0 KECCAK256 PUSH1 0x0 DUP5 PUSH20 0xFFFFFFFFFFFFFFFFFFFFFFFFFFFFFFFFFFFFFFFF AND PUSH20 0xFFFFFFFFFFFFFFFFFFFFFFFFFFFFFFFFFFFFFFFF AND DUP2 MSTORE PUSH1 0x20 ADD SWAP1 DUP2 MSTORE PUSH1 0x20 ADD PUSH1 0x0 KECCAK256 PUSH1 0x0 PUSH2 0x100 EXP DUP2 SLOAD DUP2 PUSH1 0xFF MUL NOT AND SWAP1 DUP4 ISZERO ISZERO MUL OR SWAP1 SSTORE POP DUP2 PUSH20 0xFFFFFFFFFFFFFFFFFFFFFFFFFFFFFFFFFFFFFFFF AND DUP4 PUSH20 0xFFFFFFFFFFFFFFFFFFFFFFFFFFFFFFFFFFFFFFFF AND PUSH32 0x17307EAB39AB6107E8899845AD3D59BD9653F200F220920489CA2B5937696C31 DUP4 PUSH1 0x40 MLOAD PUSH2 0xF74 SWAP2 SWAP1 PUSH2 0x1A0F JUMP JUMPDEST PUSH1 0x40 MLOAD DUP1 SWAP2 SUB SWAP1 LOG3 POP POP POP JUMP JUMPDEST PUSH1 0x0 DUP4 PUSH20 0xFFFFFFFFFFFFFFFFFFFFFFFFFFFFFFFFFFFFFFFF AND EXTCODESIZE GT ISZERO PUSH2 0x112B JUMPI DUP3 PUSH20 0xFFFFFFFFFFFFFFFFFFFFFFFFFFFFFFFFFFFFFFFF AND PUSH4 0x150B7A02 DUP7 DUP7 DUP6 DUP6 PUSH1 0x40 MLOAD DUP6 PUSH4 0xFFFFFFFF AND PUSH1 0xE0 SHL DUP2 MSTORE PUSH1 0x4 ADD PUSH2 0xFE0 SWAP5 SWAP4 SWAP3 SWAP2 SWAP1 PUSH2 0x227C JUMP JUMPDEST PUSH1 0x20 PUSH1 0x40 MLOAD DUP1 DUP4 SUB DUP2 PUSH1 0x0 DUP8 GAS CALL SWAP3 POP POP POP DUP1 ISZERO PUSH2 0x101C JUMPI POP PUSH1 0x40 MLOAD RETURNDATASIZE PUSH1 0x1F NOT PUSH1 0x1F DUP3 ADD AND DUP3 ADD DUP1 PUSH1 0x40 MSTORE POP DUP2 ADD SWAP1 PUSH2 0x1019 SWAP2 SWAP1 PUSH2 0x22DD JUMP JUMPDEST PUSH1 0x1 JUMPDEST PUSH2 0x10A0 JUMPI RETURNDATASIZE DUP1 PUSH1 0x0 DUP2 EQ PUSH2 0x104C JUMPI PUSH1 0x40 MLOAD SWAP2 POP PUSH1 0x1F NOT PUSH1 0x3F RETURNDATASIZE ADD AND DUP3 ADD PUSH1 0x40 MSTORE RETURNDATASIZE DUP3 MSTORE RETURNDATASIZE PUSH1 0x0 PUSH1 0x20 DUP5 ADD RETURNDATACOPY PUSH2 0x1051 JUMP JUMPDEST PUSH1 0x60 SWAP2 POP JUMPDEST POP PUSH1 0x0 DUP2 MLOAD SUB PUSH2 0x1098 JUMPI DUP4 PUSH1 0x40 MLOAD PUSH32 0x64A0AE9200000000000000000000000000000000000000000000000000000000 DUP2 MSTORE PUSH1 0x4 ADD PUSH2 0x108F SWAP2 SWAP1 PUSH2 0x1A6B JUMP JUMPDEST PUSH1 0x40 MLOAD DUP1 SWAP2 SUB SWAP1 REVERT JUMPDEST DUP1 MLOAD DUP2 PUSH1 0x20 ADD REVERT JUMPDEST PUSH4 0x150B7A02 PUSH1 0xE0 SHL PUSH28 0xFFFFFFFFFFFFFFFFFFFFFFFFFFFFFFFFFFFFFFFFFFFFFFFFFFFFFFFF NOT AND DUP2 PUSH28 0xFFFFFFFFFFFFFFFFFFFFFFFFFFFFFFFFFFFFFFFFFFFFFFFFFFFFFFFF NOT AND EQ PUSH2 0x1129 JUMPI DUP4 PUSH1 0x40 MLOAD PUSH32 0x64A0AE9200000000000000000000000000000000000000000000000000000000 DUP2 MSTORE PUSH1 0x4 ADD PUSH2 0x1120 SWAP2 SWAP1 PUSH2 0x1A6B JUMP JUMPDEST PUSH1 0x40 MLOAD DUP1 SWAP2 SUB SWAP1 REVERT JUMPDEST POP JUMPDEST POP POP POP POP POP JUMP JUMPDEST PUSH1 0x60 PUSH1 0x40 MLOAD DUP1 PUSH1 0x20 ADD PUSH1 0x40 MSTORE DUP1 PUSH1 0x0 DUP2 MSTORE POP SWAP1 POP SWAP1 JUMP JUMPDEST PUSH1 0x60 PUSH2 0x1154 DUP3 PUSH2 0xB19 JUMP JUMPDEST POP PUSH1 0x0 PUSH2 0x115F PUSH2 0x1132 JUMP JUMPDEST SWAP1 POP PUSH1 0x0 DUP2 MLOAD GT PUSH2 0x117F JUMPI PUSH1 0x40 MLOAD DUP1 PUSH1 0x20 ADD PUSH1 0x40 MSTORE DUP1 PUSH1 0x0 DUP2 MSTORE POP PUSH2 0x11AA JUMP JUMPDEST DUP1 PUSH2 0x1189 DUP5 PUSH2 0x155C JUMP JUMPDEST PUSH1 0x40 MLOAD PUSH1 0x20 ADD PUSH2 0x119A SWAP3 SWAP2 SWAP1 PUSH2 0x20E5 JUMP JUMPDEST PUSH1 0x40 MLOAD PUSH1 0x20 DUP2 DUP4 SUB SUB DUP2 MSTORE SWAP1 PUSH1 0x40 MSTORE JUMPDEST SWAP2 POP POP SWAP2 SWAP1 POP JUMP JUMPDEST PUSH2 0x11CC DUP3 DUP3 PUSH1 0x40 MLOAD DUP1 PUSH1 0x20 ADD PUSH1 0x40 MSTORE DUP1 PUSH1 0x0 DUP2 MSTORE POP PUSH2 0x162A JUMP JUMPDEST POP POP JUMP JUMPDEST DUP1 PUSH1 0x6 PUSH1 0x0 DUP5 DUP2 MSTORE PUSH1 0x20 ADD SWAP1 DUP2 MSTORE PUSH1 0x20 ADD PUSH1 0x0 KECCAK256 SWAP1 DUP2 PUSH2 0x11F0 SWAP2 SWAP1 PUSH2 0x24B6 JUMP JUMPDEST POP PUSH32 0xF8E1A15ABA9398E019F0B49DF1A4FDE98EE17AE345CB5F6B5E2C27F5033E8CE7 DUP3 PUSH1 0x40 MLOAD PUSH2 0x1220 SWAP2 SWAP1 PUSH2 0x1C96 JUMP JUMPDEST PUSH1 0x40 MLOAD DUP1 SWAP2 SUB SWAP1 LOG1 POP POP JUMP JUMPDEST PUSH1 0x0 PUSH32 0x1FFC9A700000000000000000000000000000000000000000000000000000000 PUSH28 0xFFFFFFFFFFFFFFFFFFFFFFFFFFFFFFFFFFFFFFFFFFFFFFFFFFFFFFFF NOT AND DUP3 PUSH28 0xFFFFFFFFFFFFFFFFFFFFFFFFFFFFFFFFFFFFFFFFFFFFFFFFFFFFFFFF NOT AND EQ SWAP1 POP SWAP2 SWAP1 POP JUMP JUMPDEST PUSH1 0x0 PUSH1 0x2 PUSH1 0x0 DUP4 DUP2 MSTORE PUSH1 0x20 ADD SWAP1 DUP2 MSTORE PUSH1 0x20 ADD PUSH1 0x0 KECCAK256 PUSH1 0x0 SWAP1 SLOAD SWAP1 PUSH2 0x100 EXP SWAP1 DIV PUSH20 0xFFFFFFFFFFFFFFFFFFFFFFFFFFFFFFFFFFFFFFFF AND SWAP1 POP SWAP2 SWAP1 POP JUMP JUMPDEST DUP1 DUP1 PUSH2 0x130C JUMPI POP PUSH1 0x0 PUSH20 0xFFFFFFFFFFFFFFFFFFFFFFFFFFFFFFFFFFFFFFFF AND DUP3 PUSH20 0xFFFFFFFFFFFFFFFFFFFFFFFFFFFFFFFFFFFFFFFF AND EQ ISZERO JUMPDEST ISZERO PUSH2 0x1440 JUMPI PUSH1 0x0 PUSH2 0x131C DUP5 PUSH2 0xB19 JUMP JUMPDEST SWAP1 POP PUSH1 0x0 PUSH20 0xFFFFFFFFFFFFFFFFFFFFFFFFFFFFFFFFFFFFFFFF AND DUP4 PUSH20 0xFFFFFFFFFFFFFFFFFFFFFFFFFFFFFFFFFFFFFFFF AND EQ ISZERO DUP1 ISZERO PUSH2 0x1387 JUMPI POP DUP3 PUSH20 0xFFFFFFFFFFFFFFFFFFFFFFFFFFFFFFFFFFFFFFFF AND DUP2 PUSH20 0xFFFFFFFFFFFFFFFFFFFFFFFFFFFFFFFFFFFFFFFF AND EQ ISZERO JUMPDEST DUP1 ISZERO PUSH2 0x139A JUMPI POP PUSH2 0x1398 DUP2 DUP5 PUSH2 0x9A3 JUMP JUMPDEST ISZERO JUMPDEST ISZERO PUSH2 0x13DC JUMPI DUP3 PUSH1 0x40 MLOAD PUSH32 0xA9FBF51F00000000000000000000000000000000000000000000000000000000 DUP2 MSTORE PUSH1 0x4 ADD PUSH2 0x13D3 SWAP2 SWAP1 PUSH2 0x1A6B JUMP JUMPDEST PUSH1 0x40 MLOAD DUP1 SWAP2 SUB SWAP1 REVERT JUMPDEST DUP2 ISZERO PUSH2 0x143E JUMPI DUP4 DUP6 PUSH20 0xFFFFFFFFFFFFFFFFFFFFFFFFFFFFFFFFFFFFFFFF AND DUP3 PUSH20 0xFFFFFFFFFFFFFFFFFFFFFFFFFFFFFFFFFFFFFFFF AND PUSH32 0x8C5BE1E5EBEC7D5BD14F71427D1E84F3DD0314C0F7B2291E5B200AC8C7C3B925 PUSH1 0x40 MLOAD PUSH1 0x40 MLOAD DUP1 SWAP2 SUB SWAP1 LOG4 JUMPDEST POP JUMPDEST DUP4 PUSH1 0x4 PUSH1 0x0 DUP6 DUP2 MSTORE PUSH1 0x20 ADD SWAP1 DUP2 MSTORE PUSH1 0x20 ADD PUSH1 0x0 KECCAK256 PUSH1 0x0 PUSH2 0x100 EXP DUP2 SLOAD DUP2 PUSH20 0xFFFFFFFFFFFFFFFFFFFFFFFFFFFFFFFFFFFFFFFF MUL NOT AND SWAP1 DUP4 PUSH20 0xFFFFFFFFFFFFFFFFFFFFFFFFFFFFFFFFFFFFFFFF AND MUL OR SWAP1 SSTORE POP POP POP POP POP JUMP JUMPDEST PUSH2 0x14A3 DUP4 DUP4 DUP4 PUSH2 0x164E JUMP JUMPDEST PUSH2 0x1557 JUMPI PUSH1 0x0 PUSH20 0xFFFFFFFFFFFFFFFFFFFFFFFFFFFFFFFFFFFFFFFF AND DUP4 PUSH20 0xFFFFFFFFFFFFFFFFFFFFFFFFFFFFFFFFFFFFFFFF AND SUB PUSH2 0x1518 JUMPI DUP1 PUSH1 0x40 MLOAD PUSH32 0x7E27328900000000000000000000000000000000000000000000000000000000 DUP2 MSTORE PUSH1 0x4 ADD PUSH2 0x150F SWAP2 SWAP1 PUSH2 0x1C96 JUMP JUMPDEST PUSH1 0x40 MLOAD DUP1 SWAP2 SUB SWAP1 REVERT JUMPDEST DUP2 DUP2 PUSH1 0x40 MLOAD PUSH32 0x177E802F00000000000000000000000000000000000000000000000000000000 DUP2 MSTORE PUSH1 0x4 ADD PUSH2 0x154E SWAP3 SWAP2 SWAP1 PUSH2 0x21FE JUMP JUMPDEST PUSH1 0x40 MLOAD DUP1 SWAP2 SUB SWAP1 REVERT JUMPDEST POP POP POP JUMP JUMPDEST PUSH1 0x60 PUSH1 0x0 PUSH1 0x1 PUSH2 0x156B DUP5 PUSH2 0x170F JUMP JUMPDEST ADD SWAP1 POP PUSH1 0x0 DUP2 PUSH8 0xFFFFFFFFFFFFFFFF DUP2 GT ISZERO PUSH2 0x158A JUMPI PUSH2 0x1589 PUSH2 0x1D27 JUMP JUMPDEST JUMPDEST PUSH1 0x40 MLOAD SWAP1 DUP1 DUP3 MSTORE DUP1 PUSH1 0x1F ADD PUSH1 0x1F NOT AND PUSH1 0x20 ADD DUP3 ADD PUSH1 0x40 MSTORE DUP1 ISZERO PUSH2 0x15BC JUMPI DUP2 PUSH1 0x20 ADD PUSH1 0x1 DUP3 MUL DUP1 CALLDATASIZE DUP4 CALLDATACOPY DUP1 DUP3 ADD SWAP2 POP POP SWAP1 POP JUMPDEST POP SWAP1 POP PUSH1 0x0 DUP3 PUSH1 0x20 ADD DUP3 ADD SWAP1 POP JUMPDEST PUSH1 0x1 ISZERO PUSH2 0x161F JUMPI DUP1 DUP1 PUSH1 0x1 SWAP1 SUB SWAP2 POP POP PUSH32 0x3031323334353637383961626364656600000000000000000000000000000000 PUSH1 0xA DUP7 MOD BYTE DUP2 MSTORE8 PUSH1 0xA DUP6 DUP2 PUSH2 0x1613 JUMPI PUSH2 0x1612 PUSH2 0x2588 JUMP JUMPDEST JUMPDEST DIV SWAP5 POP PUSH1 0x0 DUP6 SUB PUSH2 0x15CA JUMPI JUMPDEST DUP2 SWAP4 POP POP POP POP SWAP2 SWAP1 POP JUMP JUMPDEST PUSH2 0x1634 DUP4 DUP4 PUSH2 0x1862 JUMP JUMPDEST PUSH2 0x1649 PUSH2 0x163F PUSH2 0xBDE JUMP JUMPDEST PUSH1 0x0 DUP6 DUP6 DUP6 PUSH2 0xF81 JUMP JUMPDEST POP POP POP JUMP JUMPDEST PUSH1 0x0 DUP1 PUSH20 0xFFFFFFFFFFFFFFFFFFFFFFFFFFFFFFFFFFFFFFFF AND DUP4 PUSH20 0xFFFFFFFFFFFFFFFFFFFFFFFFFFFFFFFFFFFFFFFF AND EQ ISZERO DUP1 ISZERO PUSH2 0x1706 JUMPI POP DUP3 PUSH20 0xFFFFFFFFFFFFFFFFFFFFFFFFFFFFFFFFFFFFFFFF AND DUP5 PUSH20 0xFFFFFFFFFFFFFFFFFFFFFFFFFFFFFFFFFFFFFFFF AND EQ DUP1 PUSH2 0x16C7 JUMPI POP PUSH2 0x16C6 DUP5 DUP5 PUSH2 0x9A3 JUMP JUMPDEST JUMPDEST DUP1 PUSH2 0x1705 JUMPI POP DUP3 PUSH20 0xFFFFFFFFFFFFFFFFFFFFFFFFFFFFFFFFFFFFFFFF AND PUSH2 0x16ED DUP4 PUSH2 0xBA1 JUMP JUMPDEST PUSH20 0xFFFFFFFFFFFFFFFFFFFFFFFFFFFFFFFFFFFFFFFF AND EQ JUMPDEST JUMPDEST SWAP1 POP SWAP4 SWAP3 POP POP POP JUMP JUMPDEST PUSH1 0x0 DUP1 PUSH1 0x0 SWAP1 POP PUSH27 0x184F03E93FF9F4DAA797ED6E38ED64BF6A1F010000000000000000 DUP4 LT PUSH2 0x176D JUMPI PUSH27 0x184F03E93FF9F4DAA797ED6E38ED64BF6A1F010000000000000000 DUP4 DUP2 PUSH2 0x1763 JUMPI PUSH2 0x1762 PUSH2 0x2588 JUMP JUMPDEST JUMPDEST DIV SWAP3 POP PUSH1 0x40 DUP2 ADD SWAP1 POP JUMPDEST PUSH14 0x4EE2D6D415B85ACEF8100000000 DUP4 LT PUSH2 0x17AA JUMPI PUSH14 0x4EE2D6D415B85ACEF8100000000 DUP4 DUP2 PUSH2 0x17A0 JUMPI PUSH2 0x179F PUSH2 0x2588 JUMP JUMPDEST JUMPDEST DIV SWAP3 POP PUSH1 0x20 DUP2 ADD SWAP1 POP JUMPDEST PUSH7 0x2386F26FC10000 DUP4 LT PUSH2 0x17D9 JUMPI PUSH7 0x2386F26FC10000 DUP4 DUP2 PUSH2 0x17CF JUMPI PUSH2 0x17CE PUSH2 0x2588 JUMP JUMPDEST JUMPDEST DIV SWAP3 POP PUSH1 0x10 DUP2 ADD SWAP1 POP JUMPDEST PUSH4 0x5F5E100 DUP4 LT PUSH2 0x1802 JUMPI PUSH4 0x5F5E100 DUP4 DUP2 PUSH2 0x17F8 JUMPI PUSH2 0x17F7 PUSH2 0x2588 JUMP JUMPDEST JUMPDEST DIV SWAP3 POP PUSH1 0x8 DUP2 ADD SWAP1 POP JUMPDEST PUSH2 0x2710 DUP4 LT PUSH2 0x1827 JUMPI PUSH2 0x2710 DUP4 DUP2 PUSH2 0x181D JUMPI PUSH2 0x181C PUSH2 0x2588 JUMP JUMPDEST JUMPDEST DIV SWAP3 POP PUSH1 0x4 DUP2 ADD SWAP1 POP JUMPDEST PUSH1 0x64 DUP4 LT PUSH2 0x184A JUMPI PUSH1 0x64 DUP4 DUP2 PUSH2 0x1840 JUMPI PUSH2 0x183F PUSH2 0x2588 JUMP JUMPDEST JUMPDEST DIV SWAP3 POP PUSH1 0x2 DUP2 ADD SWAP1 POP JUMPDEST PUSH1 0xA DUP4 LT PUSH2 0x1859 JUMPI PUSH1 0x1 DUP2 ADD SWAP1 POP JUMPDEST DUP1 SWAP2 POP POP SWAP2 SWAP1 POP JUMP JUMPDEST PUSH1 0x0 PUSH20 0xFFFFFFFFFFFFFFFFFFFFFFFFFFFFFFFFFFFFFFFF AND DUP3 PUSH20 0xFFFFFFFFFFFFFFFFFFFFFFFFFFFFFFFFFFFFFFFF AND SUB PUSH2 0x18D4 JUMPI PUSH1 0x0 PUSH1 0x40 MLOAD PUSH32 0x64A0AE9200000000000000000000000000000000000000000000000000000000 DUP2 MSTORE PUSH1 0x4 ADD PUSH2 0x18CB SWAP2 SWAP1 PUSH2 0x1A6B JUMP JUMPDEST PUSH1 0x40 MLOAD DUP1 SWAP2 SUB SWAP1 REVERT JUMPDEST PUSH1 0x0 PUSH2 0x18E2 DUP4 DUP4 PUSH1 0x0 PUSH2 0xBF8 JUMP JUMPDEST SWAP1 POP PUSH1 0x0 PUSH20 0xFFFFFFFFFFFFFFFFFFFFFFFFFFFFFFFFFFFFFFFF AND DUP2 PUSH20 0xFFFFFFFFFFFFFFFFFFFFFFFFFFFFFFFFFFFFFFFF AND EQ PUSH2 0x1956 JUMPI PUSH1 0x0 PUSH1 0x40 MLOAD PUSH32 0x73C6AC6E00000000000000000000000000000000000000000000000000000000 DUP2 MSTORE PUSH1 0x4 ADD PUSH2 0x194D SWAP2 SWAP1 PUSH2 0x1A6B JUMP JUMPDEST PUSH1 0x40 MLOAD DUP1 SWAP2 SUB SWAP1 REVERT JUMPDEST POP POP POP JUMP JUMPDEST PUSH1 0x0 PUSH1 0x40 MLOAD SWAP1 POP SWAP1 JUMP JUMPDEST PUSH1 0x0 DUP1 REVERT JUMPDEST PUSH1 0x0 DUP1 REVERT JUMPDEST PUSH1 0x0 PUSH32 0xFFFFFFFF00000000000000000000000000000000000000000000000000000000 DUP3 AND SWAP1 POP SWAP2 SWAP1 POP JUMP JUMPDEST PUSH2 0x19A4 DUP2 PUSH2 0x196F JUMP JUMPDEST DUP2 EQ PUSH2 0x19AF JUMPI PUSH1 0x0 DUP1 REVERT JUMPDEST POP JUMP JUMPDEST PUSH1 0x0 DUP2 CALLDATALOAD SWAP1 POP PUSH2 0x19C1 DUP2 PUSH2 0x199B JUMP JUMPDEST SWAP3 SWAP2 POP POP JUMP JUMPDEST PUSH1 0x0 PUSH1 0x20 DUP3 DUP5 SUB SLT ISZERO PUSH2 0x19DD JUMPI PUSH2 0x19DC PUSH2 0x1965 JUMP JUMPDEST JUMPDEST PUSH1 0x0 PUSH2 0x19EB DUP5 DUP3 DUP6 ADD PUSH2 0x19B2 JUMP JUMPDEST SWAP2 POP POP SWAP3 SWAP2 POP POP JUMP JUMPDEST PUSH1 0x0 DUP2 ISZERO ISZERO SWAP1 POP SWAP2 SWAP1 POP JUMP JUMPDEST PUSH2 0x1A09 DUP2 PUSH2 0x19F4 JUMP JUMPDEST DUP3 MSTORE POP POP JUMP JUMPDEST PUSH1 0x0 PUSH1 0x20 DUP3 ADD SWAP1 POP PUSH2 0x1A24 PUSH1 0x0 DUP4 ADD DUP5 PUSH2 0x1A00 JUMP JUMPDEST SWAP3 SWAP2 POP POP JUMP JUMPDEST PUSH1 0x0 PUSH20 0xFFFFFFFFFFFFFFFFFFFFFFFFFFFFFFFFFFFFFFFF DUP3 AND SWAP1 POP SWAP2 SWAP1 POP JUMP JUMPDEST PUSH1 0x0 PUSH2 0x1A55 DUP3 PUSH2 0x1A2A JUMP JUMPDEST SWAP1 POP SWAP2 SWAP1 POP JUMP JUMPDEST PUSH2 0x1A65 DUP2 PUSH2 0x1A4A JUMP JUMPDEST DUP3 MSTORE POP POP JUMP JUMPDEST PUSH1 0x0 PUSH1 0x20 DUP3 ADD SWAP1 POP PUSH2 0x1A80 PUSH1 0x0 DUP4 ADD DUP5 PUSH2 0x1A5C JUMP JUMPDEST SWAP3 SWAP2 POP POP JUMP JUMPDEST PUSH1 0x0 DUP2 MLOAD SWAP1 POP SWAP2 SWAP1 POP JUMP JUMPDEST PUSH1 0x0 DUP3 DUP3 MSTORE PUSH1 0x20 DUP3 ADD SWAP1 POP SWAP3 SWAP2 POP POP JUMP JUMPDEST PUSH1 0x0 JUMPDEST DUP4 DUP2 LT ISZERO PUSH2 0x1AC0 JUMPI DUP1 DUP3 ADD MLOAD DUP2 DUP5 ADD MSTORE PUSH1 0x20 DUP2 ADD SWAP1 POP PUSH2 0x1AA5 JUMP JUMPDEST PUSH1 0x0 DUP5 DUP5 ADD MSTORE POP POP POP POP JUMP JUMPDEST PUSH1 0x0 PUSH1 0x1F NOT PUSH1 0x1F DUP4 ADD AND SWAP1 POP SWAP2 SWAP1 POP JUMP JUMPDEST PUSH1 0x0 PUSH2 0x1AE8 DUP3 PUSH2 0x1A86 JUMP JUMPDEST PUSH2 0x1AF2 DUP2 DUP6 PUSH2 0x1A91 JUMP JUMPDEST SWAP4 POP PUSH2 0x1B02 DUP2 DUP6 PUSH1 0x20 DUP7 ADD PUSH2 0x1AA2 JUMP JUMPDEST PUSH2 0x1B0B DUP2 PUSH2 0x1ACC JUMP JUMPDEST DUP5 ADD SWAP2 POP POP SWAP3 SWAP2 POP POP JUMP JUMPDEST PUSH1 0x0 PUSH1 0x20 DUP3 ADD SWAP1 POP DUP2 DUP2 SUB PUSH1 0x0 DUP4 ADD MSTORE PUSH2 0x1B30 DUP2 DUP5 PUSH2 0x1ADD JUMP JUMPDEST SWAP1 POP SWAP3 SWAP2 POP POP JUMP JUMPDEST PUSH1 0x0 DUP2 SWAP1 POP SWAP2 SWAP1 POP JUMP JUMPDEST PUSH2 0x1B4B DUP2 PUSH2 0x1B38 JUMP JUMPDEST DUP2 EQ PUSH2 0x1B56 JUMPI PUSH1 0x0 DUP1 REVERT JUMPDEST POP JUMP JUMPDEST PUSH1 0x0 DUP2 CALLDATALOAD SWAP1 POP PUSH2 0x1B68 DUP2 PUSH2 0x1B42 JUMP JUMPDEST SWAP3 SWAP2 POP POP JUMP JUMPDEST PUSH1 0x0 PUSH1 0x20 DUP3 DUP5 SUB SLT ISZERO PUSH2 0x1B84 JUMPI PUSH2 0x1B83 PUSH2 0x1965 JUMP JUMPDEST JUMPDEST PUSH1 0x0 PUSH2 0x1B92 DUP5 DUP3 DUP6 ADD PUSH2 0x1B59 JUMP JUMPDEST SWAP2 POP POP SWAP3 SWAP2 POP POP JUMP JUMPDEST PUSH2 0x1BA4 DUP2 PUSH2 0x1A4A JUMP JUMPDEST DUP2 EQ PUSH2 0x1BAF JUMPI PUSH1 0x0 DUP1 REVERT JUMPDEST POP JUMP JUMPDEST PUSH1 0x0 DUP2 CALLDATALOAD SWAP1 POP PUSH2 0x1BC1 DUP2 PUSH2 0x1B9B JUMP JUMPDEST SWAP3 SWAP2 POP POP JUMP JUMPDEST PUSH1 0x0 DUP1 PUSH1 0x40 DUP4 DUP6 SUB SLT ISZERO PUSH2 0x1BDE JUMPI PUSH2 0x1BDD PUSH2 0x1965 JUMP JUMPDEST JUMPDEST PUSH1 0x0 PUSH2 0x1BEC DUP6 DUP3 DUP7 ADD PUSH2 0x1BB2 JUMP JUMPDEST SWAP3 POP POP PUSH1 0x20 PUSH2 0x1BFD DUP6 DUP3 DUP7 ADD PUSH2 0x1B59 JUMP JUMPDEST SWAP2 POP POP SWAP3 POP SWAP3 SWAP1 POP JUMP JUMPDEST PUSH1 0x0 DUP1 PUSH1 0x0 PUSH1 0x60 DUP5 DUP7 SUB SLT ISZERO PUSH2 0x1C20 JUMPI PUSH2 0x1C1F PUSH2 0x1965 JUMP JUMPDEST JUMPDEST PUSH1 0x0 PUSH2 0x1C2E DUP7 DUP3 DUP8 ADD PUSH2 0x1BB2 JUMP JUMPDEST SWAP4 POP POP PUSH1 0x20 PUSH2 0x1C3F DUP7 DUP3 DUP8 ADD PUSH2 0x1BB2 JUMP JUMPDEST SWAP3 POP POP PUSH1 0x40 PUSH2 0x1C50 DUP7 DUP3 DUP8 ADD PUSH2 0x1B59 JUMP JUMPDEST SWAP2 POP POP SWAP3 POP SWAP3 POP SWAP3 JUMP JUMPDEST PUSH1 0x0 PUSH1 0x20 DUP3 DUP5 SUB SLT ISZERO PUSH2 0x1C70 JUMPI PUSH2 0x1C6F PUSH2 0x1965 JUMP JUMPDEST JUMPDEST PUSH1 0x0 PUSH2 0x1C7E DUP5 DUP3 DUP6 ADD PUSH2 0x1BB2 JUMP JUMPDEST SWAP2 POP POP SWAP3 SWAP2 POP POP JUMP JUMPDEST PUSH2 0x1C90 DUP2 PUSH2 0x1B38 JUMP JUMPDEST DUP3 MSTORE POP POP JUMP JUMPDEST PUSH1 0x0 PUSH1 0x20 DUP3 ADD SWAP1 POP PUSH2 0x1CAB PUSH1 0x0 DUP4 ADD DUP5 PUSH2 0x1C87 JUMP JUMPDEST SWAP3 SWAP2 POP POP JUMP JUMPDEST PUSH2 0x1CBA DUP2 PUSH2 0x19F4 JUMP JUMPDEST DUP2 EQ PUSH2 0x1CC5 JUMPI PUSH1 0x0 DUP1 REVERT JUMPDEST POP JUMP JUMPDEST PUSH1 0x0 DUP2 CALLDATALOAD SWAP1 POP PUSH2 0x1CD7 DUP2 PUSH2 0x1CB1 JUMP JUMPDEST SWAP3 SWAP2 POP POP JUMP JUMPDEST PUSH1 0x0 DUP1 PUSH1 0x40 DUP4 DUP6 SUB SLT ISZERO PUSH2 0x1CF4 JUMPI PUSH2 0x1CF3 PUSH2 0x1965 JUMP JUMPDEST JUMPDEST PUSH1 0x0 PUSH2 0x1D02 DUP6 DUP3 DUP7 ADD PUSH2 0x1BB2 JUMP JUMPDEST SWAP3 POP POP PUSH1 0x20 PUSH2 0x1D13 DUP6 DUP3 DUP7 ADD PUSH2 0x1CC8 JUMP JUMPDEST SWAP2 POP POP SWAP3 POP SWAP3 SWAP1 POP JUMP JUMPDEST PUSH1 0x0 DUP1 REVERT JUMPDEST PUSH1 0x0 DUP1 REVERT JUMPDEST PUSH32 0x4E487B7100000000000000000000000000000000000000000000000000000000 PUSH1 0x0 MSTORE PUSH1 0x41 PUSH1 0x4 MSTORE PUSH1 0x24 PUSH1 0x0 REVERT JUMPDEST PUSH2 0x1D5F DUP3 PUSH2 0x1ACC JUMP JUMPDEST DUP2 ADD DUP2 DUP2 LT PUSH8 0xFFFFFFFFFFFFFFFF DUP3 GT OR ISZERO PUSH2 0x1D7E JUMPI PUSH2 0x1D7D PUSH2 0x1D27 JUMP JUMPDEST JUMPDEST DUP1 PUSH1 0x40 MSTORE POP POP POP JUMP JUMPDEST PUSH1 0x0 PUSH2 0x1D91 PUSH2 0x195B JUMP JUMPDEST SWAP1 POP PUSH2 0x1D9D DUP3 DUP3 PUSH2 0x1D56 JUMP JUMPDEST SWAP2 SWAP1 POP JUMP JUMPDEST PUSH1 0x0 PUSH8 0xFFFFFFFFFFFFFFFF DUP3 GT ISZERO PUSH2 0x1DBD JUMPI PUSH2 0x1DBC PUSH2 0x1D27 JUMP JUMPDEST JUMPDEST PUSH2 0x1DC6 DUP3 PUSH2 0x1ACC JUMP JUMPDEST SWAP1 POP PUSH1 0x20 DUP2 ADD SWAP1 POP SWAP2 SWAP1 POP JUMP JUMPDEST DUP3 DUP2 DUP4 CALLDATACOPY PUSH1 0x0 DUP4 DUP4 ADD MSTORE POP POP POP JUMP JUMPDEST PUSH1 0x0 PUSH2 0x1DF5 PUSH2 0x1DF0 DUP5 PUSH2 0x1DA2 JUMP JUMPDEST PUSH2 0x1D87 JUMP JUMPDEST SWAP1 POP DUP3 DUP2 MSTORE PUSH1 0x20 DUP2 ADD DUP5 DUP5 DUP5 ADD GT ISZERO PUSH2 0x1E11 JUMPI PUSH2 0x1E10 PUSH2 0x1D22 JUMP JUMPDEST JUMPDEST PUSH2 0x1E1C DUP5 DUP3 DUP6 PUSH2 0x1DD3 JUMP JUMPDEST POP SWAP4 SWAP3 POP POP POP JUMP JUMPDEST PUSH1 0x0 DUP3 PUSH1 0x1F DUP4 ADD SLT PUSH2 0x1E39 JUMPI PUSH2 0x1E38 PUSH2 0x1D1D JUMP JUMPDEST JUMPDEST DUP2 CALLDATALOAD PUSH2 0x1E49 DUP5 DUP3 PUSH1 0x20 DUP7 ADD PUSH2 0x1DE2 JUMP JUMPDEST SWAP2 POP POP SWAP3 SWAP2 POP POP JUMP JUMPDEST PUSH1 0x0 DUP1 PUSH1 0x0 DUP1 PUSH1 0x80 DUP6 DUP8 SUB SLT ISZERO PUSH2 0x1E6C JUMPI PUSH2 0x1E6B PUSH2 0x1965 JUMP JUMPDEST JUMPDEST PUSH1 0x0 PUSH2 0x1E7A DUP8 DUP3 DUP9 ADD PUSH2 0x1BB2 JUMP JUMPDEST SWAP5 POP POP PUSH1 0x20 PUSH2 0x1E8B DUP8 DUP3 DUP9 ADD PUSH2 0x1BB2 JUMP JUMPDEST SWAP4 POP POP PUSH1 0x40 PUSH2 0x1E9C DUP8 DUP3 DUP9 ADD PUSH2 0x1B59 JUMP JUMPDEST SWAP3 POP POP PUSH1 0x60 DUP6 ADD CALLDATALOAD PUSH8 0xFFFFFFFFFFFFFFFF DUP2 GT ISZERO PUSH2 0x1EBD JUMPI PUSH2 0x1EBC PUSH2 0x196A JUMP JUMPDEST JUMPDEST PUSH2 0x1EC9 DUP8 DUP3 DUP9 ADD PUSH2 0x1E24 JUMP JUMPDEST SWAP2 POP POP SWAP3 SWAP6 SWAP2 SWAP5 POP SWAP3 POP JUMP JUMPDEST PUSH1 0x0 PUSH8 0xFFFFFFFFFFFFFFFF DUP3 GT ISZERO PUSH2 0x1EF0 JUMPI PUSH2 0x1EEF PUSH2 0x1D27 JUMP JUMPDEST JUMPDEST PUSH2 0x1EF9 DUP3 PUSH2 0x1ACC JUMP JUMPDEST SWAP1 POP PUSH1 0x20 DUP2 ADD SWAP1 POP SWAP2 SWAP1 POP JUMP JUMPDEST PUSH1 0x0 PUSH2 0x1F19 PUSH2 0x1F14 DUP5 PUSH2 0x1ED5 JUMP JUMPDEST PUSH2 0x1D87 JUMP JUMPDEST SWAP1 POP DUP3 DUP2 MSTORE PUSH1 0x20 DUP2 ADD DUP5 DUP5 DUP5 ADD GT ISZERO PUSH2 0x1F35 JUMPI PUSH2 0x1F34 PUSH2 0x1D22 JUMP JUMPDEST JUMPDEST PUSH2 0x1F40 DUP5 DUP3 DUP6 PUSH2 0x1DD3 JUMP JUMPDEST POP SWAP4 SWAP3 POP POP POP JUMP JUMPDEST PUSH1 0x0 DUP3 PUSH1 0x1F DUP4 ADD SLT PUSH2 0x1F5D JUMPI PUSH2 0x1F5C PUSH2 0x1D1D JUMP JUMPDEST JUMPDEST DUP2 CALLDATALOAD PUSH2 0x1F6D DUP5 DUP3 PUSH1 0x20 DUP7 ADD PUSH2 0x1F06 JUMP JUMPDEST SWAP2 POP POP SWAP3 SWAP2 POP POP JUMP JUMPDEST PUSH1 0x0 DUP1 PUSH1 0x40 DUP4 DUP6 SUB SLT ISZERO PUSH2 0x1F8D JUMPI PUSH2 0x1F8C PUSH2 0x1965 JUMP JUMPDEST JUMPDEST PUSH1 0x0 PUSH2 0x1F9B DUP6 DUP3 DUP7 ADD PUSH2 0x1BB2 JUMP JUMPDEST SWAP3 POP POP PUSH1 0x20 DUP4 ADD CALLDATALOAD PUSH8 0xFFFFFFFFFFFFFFFF DUP2 GT ISZERO PUSH2 0x1FBC JUMPI PUSH2 0x1FBB PUSH2 0x196A JUMP JUMPDEST JUMPDEST PUSH2 0x1FC8 DUP6 DUP3 DUP7 ADD PUSH2 0x1F48 JUMP JUMPDEST SWAP2 POP POP SWAP3 POP SWAP3 SWAP1 POP JUMP JUMPDEST PUSH1 0x0 DUP1 PUSH1 0x40 DUP4 DUP6 SUB SLT ISZERO PUSH2 0x1FE9 JUMPI PUSH2 0x1FE8 PUSH2 0x1965 JUMP JUMPDEST JUMPDEST PUSH1 0x0 PUSH2 0x1FF7 DUP6 DUP3 DUP7 ADD PUSH2 0x1BB2 JUMP JUMPDEST SWAP3 POP POP PUSH1 0x20 PUSH2 0x2008 DUP6 DUP3 DUP7 ADD PUSH2 0x1BB2 JUMP JUMPDEST SWAP2 POP POP SWAP3 POP SWAP3 SWAP1 POP JUMP JUMPDEST PUSH32 0x4E487B7100000000000000000000000000000000000000000000000000000000 PUSH1 0x0 MSTORE PUSH1 0x22 PUSH1 0x4 MSTORE PUSH1 0x24 PUSH1 0x0 REVERT JUMPDEST PUSH1 0x0 PUSH1 0x2 DUP3 DIV SWAP1 POP PUSH1 0x1 DUP3 AND DUP1 PUSH2 0x2059 JUMPI PUSH1 0x7F DUP3 AND SWAP2 POP JUMPDEST PUSH1 0x20 DUP3 LT DUP2 SUB PUSH2 0x206C JUMPI PUSH2 0x206B PUSH2 0x2012 JUMP JUMPDEST JUMPDEST POP SWAP2 SWAP1 POP JUMP JUMPDEST PUSH1 0x0 PUSH1 0x60 DUP3 ADD SWAP1 POP PUSH2 0x2087 PUSH1 0x0 DUP4 ADD DUP7 PUSH2 0x1A5C JUMP JUMPDEST PUSH2 0x2094 PUSH1 0x20 DUP4 ADD DUP6 PUSH2 0x1C87 JUMP JUMPDEST PUSH2 0x20A1 PUSH1 0x40 DUP4 ADD DUP5 PUSH2 0x1A5C JUMP JUMPDEST SWAP5 SWAP4 POP POP POP POP JUMP JUMPDEST PUSH1 0x0 DUP2 SWAP1 POP SWAP3 SWAP2 POP POP JUMP JUMPDEST PUSH1 0x0 PUSH2 0x20BF DUP3 PUSH2 0x1A86 JUMP JUMPDEST PUSH2 0x20C9 DUP2 DUP6 PUSH2 0x20A9 JUMP JUMPDEST SWAP4 POP PUSH2 0x20D9 DUP2 DUP6 PUSH1 0x20 DUP7 ADD PUSH2 0x1AA2 JUMP JUMPDEST DUP1 DUP5 ADD SWAP2 POP POP SWAP3 SWAP2 POP POP JUMP JUMPDEST PUSH1 0x0 PUSH2 0x20F1 DUP3 DUP6 PUSH2 0x20B4 JUMP JUMPDEST SWAP2 POP PUSH2 0x20FD DUP3 DUP5 PUSH2 0x20B4 JUMP JUMPDEST SWAP2 POP DUP2 SWAP1 POP SWAP4 SWAP3 POP POP POP JUMP JUMPDEST PUSH32 0x4F6E6C79206D756C746973696720697320617574686F72697A656420746F206D PUSH1 0x0 DUP3 ADD MSTORE PUSH32 0x696E740000000000000000000000000000000000000000000000000000000000 PUSH1 0x20 DUP3 ADD MSTORE POP JUMP JUMPDEST PUSH1 0x0 PUSH2 0x2165 PUSH1 0x23 DUP4 PUSH2 0x1A91 JUMP JUMPDEST SWAP2 POP PUSH2 0x2170 DUP3 PUSH2 0x2109 JUMP JUMPDEST PUSH1 0x40 DUP3 ADD SWAP1 POP SWAP2 SWAP1 POP JUMP JUMPDEST PUSH1 0x0 PUSH1 0x20 DUP3 ADD SWAP1 POP DUP2 DUP2 SUB PUSH1 0x0 DUP4 ADD MSTORE PUSH2 0x2194 DUP2 PUSH2 0x2158 JUMP JUMPDEST SWAP1 POP SWAP2 SWAP1 POP JUMP JUMPDEST PUSH32 0x4E487B7100000000000000000000000000000000000000000000000000000000 PUSH1 0x0 MSTORE PUSH1 0x11 PUSH1 0x4 MSTORE PUSH1 0x24 PUSH1 0x0 REVERT JUMPDEST PUSH1 0x0 PUSH2 0x21D5 DUP3 PUSH2 0x1B38 JUMP JUMPDEST SWAP2 POP PUSH2 0x21E0 DUP4 PUSH2 0x1B38 JUMP JUMPDEST SWAP3 POP DUP3 DUP3 ADD SWAP1 POP DUP1 DUP3 GT ISZERO PUSH2 0x21F8 JUMPI PUSH2 0x21F7 PUSH2 0x219B JUMP JUMPDEST JUMPDEST SWAP3 SWAP2 POP POP JUMP JUMPDEST PUSH1 0x0 PUSH1 0x40 DUP3 ADD SWAP1 POP PUSH2 0x2213 PUSH1 0x0 DUP4 ADD DUP6 PUSH2 0x1A5C JUMP JUMPDEST PUSH2 0x2220 PUSH1 0x20 DUP4 ADD DUP5 PUSH2 0x1C87 JUMP JUMPDEST SWAP4 SWAP3 POP POP POP JUMP JUMPDEST PUSH1 0x0 DUP2 MLOAD SWAP1 POP SWAP2 SWAP1 POP JUMP JUMPDEST PUSH1 0x0 DUP3 DUP3 MSTORE PUSH1 0x20 DUP3 ADD SWAP1 POP SWAP3 SWAP2 POP POP JUMP JUMPDEST PUSH1 0x0 PUSH2 0x224E DUP3 PUSH2 0x2227 JUMP JUMPDEST PUSH2 0x2258 DUP2 DUP6 PUSH2 0x2232 JUMP JUMPDEST SWAP4 POP PUSH2 0x2268 DUP2 DUP6 PUSH1 0x20 DUP7 ADD PUSH2 0x1AA2 JUMP JUMPDEST PUSH2 0x2271 DUP2 PUSH2 0x1ACC JUMP JUMPDEST DUP5 ADD SWAP2 POP POP SWAP3 SWAP2 POP POP JUMP JUMPDEST PUSH1 0x0 PUSH1 0x80 DUP3 ADD SWAP1 POP PUSH2 0x2291 PUSH1 0x0 DUP4 ADD DUP8 PUSH2 0x1A5C JUMP JUMPDEST PUSH2 0x229E PUSH1 0x20 DUP4 ADD DUP7 PUSH2 0x1A5C JUMP JUMPDEST PUSH2 0x22AB PUSH1 0x40 DUP4 ADD DUP6 PUSH2 0x1C87 JUMP JUMPDEST DUP2 DUP2 SUB PUSH1 0x60 DUP4 ADD MSTORE PUSH2 0x22BD DUP2 DUP5 PUSH2 0x2243 JUMP JUMPDEST SWAP1 POP SWAP6 SWAP5 POP POP POP POP POP JUMP JUMPDEST PUSH1 0x0 DUP2 MLOAD SWAP1 POP PUSH2 0x22D7 DUP2 PUSH2 0x199B JUMP JUMPDEST SWAP3 SWAP2 POP POP JUMP JUMPDEST PUSH1 0x0 PUSH1 0x20 DUP3 DUP5 SUB SLT ISZERO PUSH2 0x22F3 JUMPI PUSH2 0x22F2 PUSH2 0x1965 JUMP JUMPDEST JUMPDEST PUSH1 0x0 PUSH2 0x2301 DUP5 DUP3 DUP6 ADD PUSH2 0x22C8 JUMP JUMPDEST SWAP2 POP POP SWAP3 SWAP2 POP POP JUMP JUMPDEST PUSH1 0x0 DUP2 SWAP1 POP DUP2 PUSH1 0x0 MSTORE PUSH1 0x20 PUSH1 0x0 KECCAK256 SWAP1 POP SWAP2 SWAP1 POP JUMP JUMPDEST PUSH1 0x0 PUSH1 0x20 PUSH1 0x1F DUP4 ADD DIV SWAP1 POP SWAP2 SWAP1 POP JUMP JUMPDEST PUSH1 0x0 DUP3 DUP3 SHL SWAP1 POP SWAP3 SWAP2 POP POP JUMP JUMPDEST PUSH1 0x0 PUSH1 0x8 DUP4 MUL PUSH2 0x236C PUSH32 0xFFFFFFFFFFFFFFFFFFFFFFFFFFFFFFFFFFFFFFFFFFFFFFFFFFFFFFFFFFFFFFFF DUP3 PUSH2 0x232F JUMP JUMPDEST PUSH2 0x2376 DUP7 DUP4 PUSH2 0x232F JUMP JUMPDEST SWAP6 POP DUP1 NOT DUP5 AND SWAP4 POP DUP1 DUP7 AND DUP5 OR SWAP3 POP POP POP SWAP4 SWAP3 POP POP POP JUMP JUMPDEST PUSH1 0x0 DUP2 SWAP1 POP SWAP2 SWAP1 POP JUMP JUMPDEST PUSH1 0x0 PUSH2 0x23B3 PUSH2 0x23AE PUSH2 0x23A9 DUP5 PUSH2 0x1B38 JUMP JUMPDEST PUSH2 0x238E JUMP JUMPDEST PUSH2 0x1B38 JUMP JUMPDEST SWAP1 POP SWAP2 SWAP1 POP JUMP JUMPDEST PUSH1 0x0 DUP2 SWAP1 POP SWAP2 SWAP1 POP JUMP JUMPDEST PUSH2 0x23CD DUP4 PUSH2 0x2398 JUMP JUMPDEST PUSH2 0x23E1 PUSH2 0x23D9 DUP3 PUSH2 0x23BA JUMP JUMPDEST DUP5 DUP5 SLOAD PUSH2 0x233C JUMP JUMPDEST DUP3 SSTORE POP POP POP POP JUMP JUMPDEST PUSH1 0x0 SWAP1 JUMP JUMPDEST PUSH2 0x23F6 PUSH2 0x23E9 JUMP JUMPDEST PUSH2 0x2401 DUP2 DUP5 DUP5 PUSH2 0x23C4 JUMP JUMPDEST POP POP POP JUMP JUMPDEST JUMPDEST DUP2 DUP2 LT ISZERO PUSH2 0x2425 JUMPI PUSH2 0x241A PUSH1 0x0 DUP3 PUSH2 0x23EE JUMP JUMPDEST PUSH1 0x1 DUP2 ADD SWAP1 POP PUSH2 0x2407 JUMP JUMPDEST POP POP JUMP JUMPDEST PUSH1 0x1F DUP3 GT ISZERO PUSH2 0x246A JUMPI PUSH2 0x243B DUP2 PUSH2 0x230A JUMP JUMPDEST PUSH2 0x2444 DUP5 PUSH2 0x231F JUMP JUMPDEST DUP2 ADD PUSH1 0x20 DUP6 LT ISZERO PUSH2 0x2453 JUMPI DUP2 SWAP1 POP JUMPDEST PUSH2 0x2467 PUSH2 0x245F DUP6 PUSH2 0x231F JUMP JUMPDEST DUP4 ADD DUP3 PUSH2 0x2406 JUMP JUMPDEST POP POP JUMPDEST POP POP POP JUMP JUMPDEST PUSH1 0x0 DUP3 DUP3 SHR SWAP1 POP SWAP3 SWAP2 POP POP JUMP JUMPDEST PUSH1 0x0 PUSH2 0x248D PUSH1 0x0 NOT DUP5 PUSH1 0x8 MUL PUSH2 0x246F JUMP JUMPDEST NOT DUP1 DUP4 AND SWAP2 POP POP SWAP3 SWAP2 POP POP JUMP JUMPDEST PUSH1 0x0 PUSH2 0x24A6 DUP4 DUP4 PUSH2 0x247C JUMP JUMPDEST SWAP2 POP DUP3 PUSH1 0x2 MUL DUP3 OR SWAP1 POP SWAP3 SWAP2 POP POP JUMP JUMPDEST PUSH2 0x24BF DUP3 PUSH2 0x1A86 JUMP JUMPDEST PUSH8 0xFFFFFFFFFFFFFFFF DUP2 GT ISZERO PUSH2 0x24D8 JUMPI PUSH2 0x24D7 PUSH2 0x1D27 JUMP JUMPDEST JUMPDEST PUSH2 0x24E2 DUP3 SLOAD PUSH2 0x2041 JUMP JUMPDEST PUSH2 0x24ED DUP3 DUP3 DUP6 PUSH2 0x2429 JUMP JUMPDEST PUSH1 0x0 PUSH1 0x20 SWAP1 POP PUSH1 0x1F DUP4 GT PUSH1 0x1 DUP2 EQ PUSH2 0x2520 JUMPI PUSH1 0x0 DUP5 ISZERO PUSH2 0x250E JUMPI DUP3 DUP8 ADD MLOAD SWAP1 POP JUMPDEST PUSH2 0x2518 DUP6 DUP3 PUSH2 0x249A JUMP JUMPDEST DUP7 SSTORE POP PUSH2 0x2580 JUMP JUMPDEST PUSH1 0x1F NOT DUP5 AND PUSH2 0x252E DUP7 PUSH2 0x230A JUMP JUMPDEST PUSH1 0x0 JUMPDEST DUP3 DUP2 LT ISZERO PUSH2 0x2556 JUMPI DUP5 DUP10 ADD MLOAD DUP3 SSTORE PUSH1 0x1 DUP3 ADD SWAP2 POP PUSH1 0x20 DUP6 ADD SWAP5 POP PUSH1 0x20 DUP2 ADD SWAP1 POP PUSH2 0x2531 JUMP JUMPDEST DUP7 DUP4 LT ISZERO PUSH2 0x2573 JUMPI DUP5 DUP10 ADD MLOAD PUSH2 0x256F PUSH1 0x1F DUP10 AND DUP3 PUSH2 0x247C JUMP JUMPDEST DUP4 SSTORE POP JUMPDEST PUSH1 0x1 PUSH1 0x2 DUP9 MUL ADD DUP9 SSTORE POP POP POP JUMPDEST POP POP POP POP POP POP JUMP JUMPDEST PUSH32 0x4E487B7100000000000000000000000000000000000000000000000000000000 PUSH1 0x0 MSTORE PUSH1 0x12 PUSH1 0x4 MSTORE PUSH1 0x24 PUSH1 0x0 REVERT INVALID LOG2 PUSH5 0x6970667358 0x22 SLT KECCAK256 0xF6 0xD7 GT CREATE TLOAD PUSH1 0x35 SWAP9 PUSH24 0xA60C69C70C071378FD1D6D2DCF0C52A460F0E53FB6686F64 PUSH20 0x6F6C634300081C00330000000000000000000000 "},"gasEstimates":{"creation":{"codeDepositCost":"1941800","executionCost":"infinite","totalCost":"infinite"},"external":{"approve(address,uint256)":"infinite","balanceOf(address)":"infinite","getApproved(uint256)":"infinite","isApprovedForAll(address,address)":"infinite","mint(address,string)":"infinite","multisigContract()":"2560","name()":"infinite","ownerOf(uint256)":"infinite","safeTransferFrom(address,address,uint256)":"infinite","safeTransferFrom(address,address,uint256,bytes)":"infinite","setApprovalForAll(address,bool)":"infinite","setMultisigContract(address)":"24789","supportsInterface(bytes4)":"892","symbol()":"infinite","tokenURI(uint256)":"infinite","transferFrom(address,address,uint256)":"infinite"}},"methodIdentifiers":{"approve(address,uint256)":"095ea7b3","balanceOf(address)":"70a08231","getApproved(uint256)":"081812fc","isApprovedForAll(address,address)":"e985e9c5","mint(address,string)":"d0def521","multisigContract()":"04d5232b","name()":"06fdde03","ownerOf(uint256)":"6352211e","safeTransferFrom(address,address,uint256)":"42842e0e","safeTransferFrom(address,address,uint256,bytes)":"b88d4fde","setApprovalForAll(address,bool)":"a22cb465","setMultisigContract(address)":"2ee4887e","supportsInterface(bytes4)":"01ffc9a7","symbol()":"95d89b41","tokenURI(uint256)":"c87b56dd","transferFrom(address,address,uint256)":"23b872dd"}},"storageLayout":{"storage":[{"astId":201,"contract":"contracts/NFTSmartContract.sol:NewItem","label":"_name","offset":0,"slot":"0","type":"t_string_storage"},{"astId":203,"contract":"contracts/NFTSmartContract.sol:NewItem","label":"_symbol","offset":0,"slot":"1","type":"t_string_storage"},{"astId":207,"contract":"contracts/NFTSmartContract.sol:NewItem","label":"_owners","offset":0,"slot":"2","type":"t_mapping(t_uint256,t_address)"},{"astId":211,"contract":"contracts/NFTSmartContract.sol:NewItem","label":"_balances","offset":0,"slot":"3","type":"t_mapping(t_address,t_uint256)"},{"astId":215,"contract":"contracts/NFTSmartContract.sol:NewItem","label":"_tokenApprovals","offset":0,"slot":"4","type":"t_mapping(t_uint256,t_address)"},{"astId":221,"contract":"contracts/NFTSmartContract.sol:NewItem","label":"_operatorApprovals","offset":0,"slot":"5","type":"t_mapping(t_address,t_mapping(t_address,t_bool))"},{"astId":1288,"contract":"contracts/NFTSmartContract.sol:NewItem","label":"_tokenURIs","offset":0,"slot":"6","type":"t_mapping(t_uint256,t_string_storage)"},{"astId":5453,"contract":"contracts/NFTSmartContract.sol:NewItem","label":"tokenIdCounter","offset":0,"slot":"7","type":"t_uint256"},{"astId":5455,"contract":"contracts/NFTSmartContract.sol:NewItem","label":"multisigContract","offset":0,"slot":"8","type":"t_address"}],"types":{"t_address":{"encoding":"inplace","label":"address","numberOfBytes":"20"},"t_bool":{"encoding":"inplace","label":"bool","numberOfBytes":"1"},"t_mapping(t_address,t_bool)":{"encoding":"mapping","key":"t_address","label":"mapping(address => bool)","numberOfBytes":"32","value":"t_bool"},"t_mapping(t_address,t_mapping(t_address,t_bool))":{"encoding":"mapping","key":"t_address","label":"mapping(address => mapping(address => bool))","numberOfBytes":"32","value":"t_mapping(t_address,t_bool)"},"t_mapping(t_address,t_uint256)":{"encoding":"mapping","key":"t_address","label":"mapping(address => uint256)","numberOfBytes":"32","value":"t_uint256"},"t_mapping(t_uint256,t_address)":{"encoding":"mapping","key":"t_uint256","label":"mapping(uint256 => address)","numberOfBytes":"32","value":"t_address"},"t_mapping(t_uint256,t_string_storage)":{"encoding":"mapping","key":"t_uint256","label":"mapping(uint256 => string)","numberOfBytes":"32","value":"t_string_storage"},"t_string_storage":{"encoding":"bytes","label":"string","numberOfBytes":"32"},"t_uint256":{"encoding":"inplace","label":"uint256","numberOfBytes":"32"}}},"userdoc":{"kind":"user","methods":{},"version":1}}}}