{
  "_format": "hh-sol-artifact-1",
  "contractName": "NewItem",
  "sourceName": "contracts/NFTSmartContract.sol",
  "abi": [
    {
      "inputs": [
        {
          "internalType": "address",
          "name": "_multisigContract",
          "type": "address"
        }
      ],
      "stateMutability": "nonpayable",
      "type": "constructor"
    },
    {
      "inputs": [
        {
          "internalType": "address",
          "name": "sender",
          "type": "address"
        },
        {
          "internalType": "uint256",
          "name": "tokenId",
          "type": "uint256"
        },
        {
          "internalType": "address",
          "name": "owner",
          "type": "address"
        }
      ],
      "name": "ERC721IncorrectOwner",
      "type": "error"
    },
    {
      "inputs": [
        {
          "internalType": "address",
          "name": "operator",
          "type": "address"
        },
        {
          "internalType": "uint256",
          "name": "tokenId",
          "type": "uint256"
        }
      ],
      "name": "ERC721InsufficientApproval",
      "type": "error"
    },
    {
      "inputs": [
        {
          "internalType": "address",
          "name": "approver",
          "type": "address"
        }
      ],
      "name": "ERC721InvalidApprover",
      "type": "error"
    },
    {
      "inputs": [
        {
          "internalType": "address",
          "name": "operator",
          "type": "address"
        }
      ],
      "name": "ERC721InvalidOperator",
      "type": "error"
    },
    {
      "inputs": [
        {
          "internalType": "address",
          "name": "owner",
          "type": "address"
        }
      ],
      "name": "ERC721InvalidOwner",
      "type": "error"
    },
    {
      "inputs": [
        {
          "internalType": "address",
          "name": "receiver",
          "type": "address"
        }
      ],
      "name": "ERC721InvalidReceiver",
      "type": "error"
    },
    {
      "inputs": [
        {
          "internalType": "address",
          "name": "sender",
          "type": "address"
        }
      ],
      "name": "ERC721InvalidSender",
      "type": "error"
    },
    {
      "inputs": [
        {
          "internalType": "uint256",
          "name": "tokenId",
          "type": "uint256"
        }
      ],
      "name": "ERC721NonexistentToken",
      "type": "error"
    },
    {
      "anonymous": false,
      "inputs": [
        {
          "indexed": true,
          "internalType": "address",
          "name": "owner",
          "type": "address"
        },
        {
          "indexed": true,
          "internalType": "address",
          "name": "approved",
          "type": "address"
        },
        {
          "indexed": true,
          "internalType": "uint256",
          "name": "tokenId",
          "type": "uint256"
        }
      ],
      "name": "Approval",
      "type": "event"
    },
    {
      "anonymous": false,
      "inputs": [
        {
          "indexed": true,
          "internalType": "address",
          "name": "owner",
          "type": "address"
        },
        {
          "indexed": true,
          "internalType": "address",
          "name": "operator",
          "type": "address"
        },
        {
          "indexed": false,
          "internalType": "bool",
          "name": "approved",
          "type": "bool"
        }
      ],
      "name": "ApprovalForAll",
      "type": "event"
    },
    {
      "anonymous": false,
      "inputs": [
        {
          "indexed": false,
          "internalType": "uint256",
          "name": "_fromTokenId",
          "type": "uint256"
        },
        {
          "indexed": false,
          "internalType": "uint256",
          "name": "_toTokenId",
          "type": "uint256"
        }
      ],
      "name": "BatchMetadataUpdate",
      "type": "event"
    },
    {
      "anonymous": false,
      "inputs": [
        {
          "indexed": false,
          "internalType": "uint256",
          "name": "_tokenId",
          "type": "uint256"
        }
      ],
      "name": "MetadataUpdate",
      "type": "event"
    },
    {
      "anonymous": false,
      "inputs": [
        {
          "indexed": false,
          "internalType": "address",
          "name": "to",
          "type": "address"
        },
        {
          "indexed": false,
          "internalType": "uint256",
          "name": "tokenId",
          "type": "uint256"
        }
      ],
      "name": "MintRequested",
      "type": "event"
    },
    {
      "anonymous": false,
      "inputs": [
        {
          "indexed": true,
          "internalType": "address",
          "name": "from",
          "type": "address"
        },
        {
          "indexed": true,
          "internalType": "address",
          "name": "to",
          "type": "address"
        },
        {
          "indexed": true,
          "internalType": "uint256",
          "name": "tokenId",
          "type": "uint256"
        }
      ],
      "name": "Transfer",
      "type": "event"
    },
    {
      "inputs": [
        {
          "internalType": "address",
          "name": "to",
          "type": "address"
        },
        {
          "internalType": "uint256",
          "name": "tokenId",
          "type": "uint256"
        }
      ],
      "name": "approve",
      "outputs": [],
      "stateMutability": "nonpayable",
      "type": "function"
    },
    {
      "inputs": [
        {
          "internalType": "address",
          "name": "owner",
          "type": "address"
        }
      ],
      "name": "balanceOf",
      "outputs": [
        {
          "internalType": "uint256",
          "name": "",
          "type": "uint256"
        }
      ],
      "stateMutability": "view",
      "type": "function"
    },
    {
      "inputs": [
        {
          "internalType": "uint256",
          "name": "tokenId",
          "type": "uint256"
        }
      ],
      "name": "getApproved",
      "outputs": [
        {
          "internalType": "address",
          "name": "",
          "type": "address"
        }
      ],
      "stateMutability": "view",
      "type": "function"
    },
    {
      "inputs": [
        {
          "internalType": "address",
          "name": "owner",
          "type": "address"
        },
        {
          "internalType": "address",
          "name": "operator",
          "type": "address"
        }
      ],
      "name": "isApprovedForAll",
      "outputs": [
        {
          "internalType": "bool",
          "name": "",
          "type": "bool"
        }
      ],
      "stateMutability": "view",
      "type": "function"
    },
    {
      "inputs": [
        {
          "internalType": "address",
          "name": "to",
          "type": "address"
        },
        {
          "internalType": "string",
          "name": "tokenURI",
          "type": "string"
        }
      ],
      "name": "mint",
      "outputs": [],
      "stateMutability": "nonpayable",
      "type": "function"
    },
    {
      "inputs": [],
      "name": "multisigContract",
      "outputs": [
        {
          "internalType": "address",
          "name": "",
          "type": "address"
        }
      ],
      "stateMutability": "view",
      "type": "function"
    },
    {
      "inputs": [],
      "name": "name",
      "outputs": [
        {
          "internalType": "string",
          "name": "",
          "type": "string"
        }
      ],
      "stateMutability": "view",
      "type": "function"
    },
    {
      "inputs": [
        {
          "internalType": "uint256",
          "name": "tokenId",
          "type": "uint256"
        }
      ],
      "name": "ownerOf",
      "outputs": [
        {
          "internalType": "address",
          "name": "",
          "type": "address"
        }
      ],
      "stateMutability": "view",
      "type": "function"
    },
    {
      "inputs": [
        {
          "internalType": "address",
          "name": "from",
          "type": "address"
        },
        {
          "internalType": "address",
          "name": "to",
          "type": "address"
        },
        {
          "internalType": "uint256",
          "name": "tokenId",
          "type": "uint256"
        }
      ],
      "name": "safeTransferFrom",
      "outputs": [],
      "stateMutability": "nonpayable",
      "type": "function"
    },
    {
      "inputs": [
        {
          "internalType": "address",
          "name": "from",
          "type": "address"
        },
        {
          "internalType": "address",
          "name": "to",
          "type": "address"
        },
        {
          "internalType": "uint256",
          "name": "tokenId",
          "type": "uint256"
        },
        {
          "internalType": "bytes",
          "name": "data",
          "type": "bytes"
        }
      ],
      "name": "safeTransferFrom",
      "outputs": [],
      "stateMutability": "nonpayable",
      "type": "function"
    },
    {
      "inputs": [
        {
          "internalType": "address",
          "name": "operator",
          "type": "address"
        },
        {
          "internalType": "bool",
          "name": "approved",
          "type": "bool"
        }
      ],
      "name": "setApprovalForAll",
      "outputs": [],
      "stateMutability": "nonpayable",
      "type": "function"
    },
    {
      "inputs": [
        {
          "internalType": "address",
          "name": "_multisigContract",
          "type": "address"
        }
      ],
      "name": "setMultisigContract",
      "outputs": [],
      "stateMutability": "nonpayable",
      "type": "function"
    },
    {
      "inputs": [
        {
          "internalType": "bytes4",
          "name": "interfaceId",
          "type": "bytes4"
        }
      ],
      "name": "supportsInterface",
      "outputs": [
        {
          "internalType": "bool",
          "name": "",
          "type": "bool"
        }
      ],
      "stateMutability": "view",
      "type": "function"
    },
    {
      "inputs": [],
      "name": "symbol",
      "outputs": [
        {
          "internalType": "string",
          "name": "",
          "type": "string"
        }
      ],
      "stateMutability": "view",
      "type": "function"
    },
    {
      "inputs": [
        {
          "internalType": "uint256",
          "name": "tokenId",
          "type": "uint256"
        }
      ],
      "name": "tokenURI",
      "outputs": [
        {
          "internalType": "string",
          "name": "",
          "type": "string"
        }
      ],
      "stateMutability": "view",
      "type": "function"
    },
    {
      "inputs": [
        {
          "internalType": "address",
          "name": "from",
          "type": "address"
        },
        {
          "internalType": "address",
          "name": "to",
          "type": "address"
        },
        {
          "internalType": "uint256",
          "name": "tokenId",
          "type": "uint256"
        }
      ],
      "name": "transferFrom",
      "outputs": [],
      "stateMutability": "nonpayable",
      "type": "function"
    }
  ],
  "bytecode": "0x608060405234801561001057600080fd5b50604051612abd380380612abd83398181016040528101906100329190610172565b6040518060400160405280600781526020017f4e65774974656d000000000000000000000000000000000000000000000000008152506040518060400160405280600481526020017f4d4e46540000000000000000000000000000000000000000000000000000000081525081600090816100ad91906103ef565b5080600190816100bd91906103ef565b505050600160078190555080600860006101000a81548173ffffffffffffffffffffffffffffffffffffffff021916908373ffffffffffffffffffffffffffffffffffffffff160217905550506104c1565b600080fd5b600073ffffffffffffffffffffffffffffffffffffffff82169050919050565b600061013f82610114565b9050919050565b61014f81610134565b811461015a57600080fd5b50565b60008151905061016c81610146565b92915050565b6000602082840312156101885761018761010f565b5b60006101968482850161015d565b91505092915050565b600081519050919050565b7f4e487b7100000000000000000000000000000000000000000000000000000000600052604160045260246000fd5b7f4e487b7100000000000000000000000000000000000000000000000000000000600052602260045260246000fd5b6000600282049050600182168061022057607f821691505b602082108103610233576102326101d9565b5b50919050565b60008190508160005260206000209050919050565b60006020601f8301049050919050565b600082821b905092915050565b60006008830261029b7fffffffffffffffffffffffffffffffffffffffffffffffffffffffffffffffff8261025e565b6102a5868361025e565b95508019841693508086168417925050509392505050565b6000819050919050565b6000819050919050565b60006102ec6102e76102e2846102bd565b6102c7565b6102bd565b9050919050565b6000819050919050565b610306836102d1565b61031a610312826102f3565b84845461026b565b825550505050565b600090565b61032f610322565b61033a8184846102fd565b505050565b5b8181101561035e57610353600082610327565b600181019050610340565b5050565b601f8211156103a35761037481610239565b61037d8461024e565b8101602085101561038c578190505b6103a06103988561024e565b83018261033f565b50505b505050565b600082821c905092915050565b60006103c6600019846008026103a8565b1980831691505092915050565b60006103df83836103b5565b9150826002028217905092915050565b6103f88261019f565b67ffffffffffffffff811115610411576104106101aa565b5b61041b8254610208565b610426828285610362565b600060209050601f8311600181146104595760008415610447578287015190505b61045185826103d3565b8655506104b9565b601f19841661046786610239565b60005b8281101561048f5784890151825560018201915060208501945060208101905061046a565b868310156104ac57848901516104a8601f8916826103b5565b8355505b6001600288020188555050505b505050505050565b6125ed806104d06000396000f3fe608060405234801561001057600080fd5b50600436106101005760003560e01c80636352211e11610097578063b88d4fde11610066578063b88d4fde146102ab578063c87b56dd146102c7578063d0def521146102f7578063e985e9c51461031357610100565b80636352211e1461021157806370a082311461024157806395d89b4114610271578063a22cb4651461028f57610100565b8063095ea7b3116100d3578063095ea7b3146101a157806323b872dd146101bd5780632ee4887e146101d957806342842e0e146101f557610100565b806301ffc9a71461010557806304d5232b1461013557806306fdde0314610153578063081812fc14610171575b600080fd5b61011f600480360381019061011a91906119c7565b610343565b60405161012c9190611a0f565b60405180910390f35b61013d6103a4565b60405161014a9190611a6b565b60405180910390f35b61015b6103ca565b6040516101689190611b16565b60405180910390f35b61018b60048036038101906101869190611b6e565b61045c565b6040516101989190611a6b565b60405180910390f35b6101bb60048036038101906101b69190611bc7565b610478565b005b6101d760048036038101906101d29190611c07565b61048e565b005b6101f360048036038101906101ee9190611c5a565b610590565b005b61020f600480360381019061020a9190611c07565b6105d4565b005b61022b60048036038101906102269190611b6e565b6105f4565b6040516102389190611a6b565b60405180910390f35b61025b60048036038101906102569190611c5a565b610606565b6040516102689190611c96565b60405180910390f35b6102796106c0565b6040516102869190611b16565b60405180910390f35b6102a960048036038101906102a49190611cdd565b610752565b005b6102c560048036038101906102c09190611e52565b610768565b005b6102e160048036038101906102dc9190611b6e565b61078d565b6040516102ee9190611b16565b60405180910390f35b610311600480360381019061030c9190611f76565b6108a0565b005b61032d60048036038101906103289190611fd2565b6109a3565b60405161033a9190611a0f565b60405180910390f35b6000634906490660e01b7bffffffffffffffffffffffffffffffffffffffffffffffffffffffff1916827bffffffffffffffffffffffffffffffffffffffffffffffffffffffff1916148061039d575061039c82610a37565b5b9050919050565b600860009054906101000a900473ffffffffffffffffffffffffffffffffffffffff1681565b6060600080546103d990612041565b80601f016020809104026020016040519081016040528092919081815260200182805461040590612041565b80156104525780601f1061042757610100808354040283529160200191610452565b820191906000526020600020905b81548152906001019060200180831161043557829003601f168201915b5050505050905090565b600061046782610b19565b5061047182610ba1565b9050919050565b61048a8282610485610bde565b610be6565b5050565b600073ffffffffffffffffffffffffffffffffffffffff168273ffffffffffffffffffffffffffffffffffffffff16036105005760006040517f64a0ae920000000000000000000000000000000000000000000000000000000081526004016104f79190611a6b565b60405180910390fd5b6000610514838361050f610bde565b610bf8565b90508373ffffffffffffffffffffffffffffffffffffffff168173ffffffffffffffffffffffffffffffffffffffff161461058a578382826040517f64283d7b00000000000000000000000000000000000000000000000000000000815260040161058193929190612072565b60405180910390fd5b50505050565b80600860006101000a81548173ffffffffffffffffffffffffffffffffffffffff021916908373ffffffffffffffffffffffffffffffffffffffff16021790555050565b6105ef83838360405180602001604052806000815250610768565b505050565b60006105ff82610b19565b9050919050565b60008073ffffffffffffffffffffffffffffffffffffffff168273ffffffffffffffffffffffffffffffffffffffff16036106795760006040517f89c62b640000000000000000000000000000000000000000000000000000000081526004016106709190611a6b565b60405180910390fd5b600360008373ffffffffffffffffffffffffffffffffffffffff1673ffffffffffffffffffffffffffffffffffffffff168152602001908152602001600020549050919050565b6060600180546106cf90612041565b80601f01602080910402602001604051908101604052809291908181526020018280546106fb90612041565b80156107485780601f1061071d57610100808354040283529160200191610748565b820191906000526020600020905b81548152906001019060200180831161072b57829003601f168201915b5050505050905090565b61076461075d610bde565b8383610e12565b5050565b61077384848461048e565b61078761077e610bde565b85858585610f81565b50505050565b606061079882610b19565b5060006006600084815260200190815260200160002080546107b990612041565b80601f01602080910402602001604051908101604052809291908181526020018280546107e590612041565b80156108325780601f1061080757610100808354040283529160200191610832565b820191906000526020600020905b81548152906001019060200180831161081557829003601f168201915b505050505090506000610843611132565b9050600081510361085857819250505061089b565b60008251111561088d5780826040516020016108759291906120e5565b6040516020818303038152906040529250505061089b565b61089684611149565b925050505b919050565b600860009054906101000a900473ffffffffffffffffffffffffffffffffffffffff1673ffffffffffffffffffffffffffffffffffffffff163373ffffffffffffffffffffffffffffffffffffffff1614610930576040517f08c379a00000000000000000000000000000000000000000000000000000000081526004016109279061217b565b60405180910390fd5b6000600754905061094183826111b2565b61094b81836111d0565b60016007600082825461095e91906121ca565b925050819055507fc519703873525524fd8b8723ddd729231f65f0ff4572aeb0d5c46ed7556b103083826040516109969291906121fe565b60405180910390a1505050565b6000600560008473ffffffffffffffffffffffffffffffffffffffff1673ffffffffffffffffffffffffffffffffffffffff16815260200190815260200160002060008373ffffffffffffffffffffffffffffffffffffffff1673ffffffffffffffffffffffffffffffffffffffff16815260200190815260200160002060009054906101000a900460ff16905092915050565b60007f80ac58cd000000000000000000000000000000000000000000000000000000007bffffffffffffffffffffffffffffffffffffffffffffffffffffffff1916827bffffffffffffffffffffffffffffffffffffffffffffffffffffffff19161480610b0257507f5b5e139f000000000000000000000000000000000000000000000000000000007bffffffffffffffffffffffffffffffffffffffffffffffffffffffff1916827bffffffffffffffffffffffffffffffffffffffffffffffffffffffff1916145b80610b125750610b118261122c565b5b9050919050565b600080610b2583611296565b9050600073ffffffffffffffffffffffffffffffffffffffff168173ffffffffffffffffffffffffffffffffffffffff1603610b9857826040517f7e273289000000000000000000000000000000000000000000000000000000008152600401610b8f9190611c96565b60405180910390fd5b80915050919050565b60006004600083815260200190815260200160002060009054906101000a900473ffffffffffffffffffffffffffffffffffffffff169050919050565b600033905090565b610bf383838360016112d3565b505050565b600080610c0484611296565b9050600073ffffffffffffffffffffffffffffffffffffffff168373ffffffffffffffffffffffffffffffffffffffff1614610c4657610c45818486611498565b5b600073ffffffffffffffffffffffffffffffffffffffff168173ffffffffffffffffffffffffffffffffffffffff1614610cd757610c886000856000806112d3565b6001600360008373ffffffffffffffffffffffffffffffffffffffff1673ffffffffffffffffffffffffffffffffffffffff168152602001908152602001600020600082825403925050819055505b600073ffffffffffffffffffffffffffffffffffffffff168573ffffffffffffffffffffffffffffffffffffffff1614610d5a576001600360008773ffffffffffffffffffffffffffffffffffffffff1673ffffffffffffffffffffffffffffffffffffffff168152602001908152602001600020600082825401925050819055505b846002600086815260200190815260200160002060006101000a81548173ffffffffffffffffffffffffffffffffffffffff021916908373ffffffffffffffffffffffffffffffffffffffff160217905550838573ffffffffffffffffffffffffffffffffffffffff168273ffffffffffffffffffffffffffffffffffffffff167fddf252ad1be2c89b69c2b068fc378daa952ba7f163c4a11628f55a4df523b3ef60405160405180910390a4809150509392505050565b600073ffffffffffffffffffffffffffffffffffffffff168273ffffffffffffffffffffffffffffffffffffffff1603610e8357816040517f5b08ba18000000000000000000000000000000000000000000000000000000008152600401610e7a9190611a6b565b60405180910390fd5b80600560008573ffffffffffffffffffffffffffffffffffffffff1673ffffffffffffffffffffffffffffffffffffffff16815260200190815260200160002060008473ffffffffffffffffffffffffffffffffffffffff1673ffffffffffffffffffffffffffffffffffffffff16815260200190815260200160002060006101000a81548160ff0219169083151502179055508173ffffffffffffffffffffffffffffffffffffffff168373ffffffffffffffffffffffffffffffffffffffff167f17307eab39ab6107e8899845ad3d59bd9653f200f220920489ca2b5937696c3183604051610f749190611a0f565b60405180910390a3505050565b60008373ffffffffffffffffffffffffffffffffffffffff163b111561112b578273ffffffffffffffffffffffffffffffffffffffff1663150b7a02868685856040518563ffffffff1660e01b8152600401610fe0949392919061227c565b6020604051808303816000875af192505050801561101c57506040513d601f19601f8201168201806040525081019061101991906122dd565b60015b6110a0573d806000811461104c576040519150601f19603f3d011682016040523d82523d6000602084013e611051565b606091505b50600081510361109857836040517f64a0ae9200000000000000000000000000000000000000000000000000000000815260040161108f9190611a6b565b60405180910390fd5b805181602001fd5b63150b7a0260e01b7bffffffffffffffffffffffffffffffffffffffffffffffffffffffff1916817bffffffffffffffffffffffffffffffffffffffffffffffffffffffff19161461112957836040517f64a0ae920000000000000000000000000000000000000000000000000000000081526004016111209190611a6b565b60405180910390fd5b505b5050505050565b606060405180602001604052806000815250905090565b606061115482610b19565b50600061115f611132565b9050600081511161117f57604051806020016040528060008152506111aa565b806111898461155c565b60405160200161119a9291906120e5565b6040516020818303038152906040525b915050919050565b6111cc82826040518060200160405280600081525061162a565b5050565b806006600084815260200190815260200160002090816111f091906124b6565b507ff8e1a15aba9398e019f0b49df1a4fde98ee17ae345cb5f6b5e2c27f5033e8ce7826040516112209190611c96565b60405180910390a15050565b60007f01ffc9a7000000000000000000000000000000000000000000000000000000007bffffffffffffffffffffffffffffffffffffffffffffffffffffffff1916827bffffffffffffffffffffffffffffffffffffffffffffffffffffffff1916149050919050565b60006002600083815260200190815260200160002060009054906101000a900473ffffffffffffffffffffffffffffffffffffffff169050919050565b808061130c5750600073ffffffffffffffffffffffffffffffffffffffff168273ffffffffffffffffffffffffffffffffffffffff1614155b1561144057600061131c84610b19565b9050600073ffffffffffffffffffffffffffffffffffffffff168373ffffffffffffffffffffffffffffffffffffffff161415801561138757508273ffffffffffffffffffffffffffffffffffffffff168173ffffffffffffffffffffffffffffffffffffffff1614155b801561139a575061139881846109a3565b155b156113dc57826040517fa9fbf51f0000000000000000000000000000000000000000000000000000000081526004016113d39190611a6b565b60405180910390fd5b811561143e57838573ffffffffffffffffffffffffffffffffffffffff168273ffffffffffffffffffffffffffffffffffffffff167f8c5be1e5ebec7d5bd14f71427d1e84f3dd0314c0f7b2291e5b200ac8c7c3b92560405160405180910390a45b505b836004600085815260200190815260200160002060006101000a81548173ffffffffffffffffffffffffffffffffffffffff021916908373ffffffffffffffffffffffffffffffffffffffff16021790555050505050565b6114a383838361164e565b61155757600073ffffffffffffffffffffffffffffffffffffffff168373ffffffffffffffffffffffffffffffffffffffff160361151857806040517f7e27328900000000000000000000000000000000000000000000000000000000815260040161150f9190611c96565b60405180910390fd5b81816040517f177e802f00000000000000000000000000000000000000000000000000000000815260040161154e9291906121fe565b60405180910390fd5b505050565b60606000600161156b8461170f565b01905060008167ffffffffffffffff81111561158a57611589611d27565b5b6040519080825280601f01601f1916602001820160405280156115bc5781602001600182028036833780820191505090505b509050600082602001820190505b60011561161f578080600190039150507f3031323334353637383961626364656600000000000000000000000000000000600a86061a8153600a858161161357611612612588565b5b049450600085036115ca575b819350505050919050565b6116348383611862565b61164961163f610bde565b6000858585610f81565b505050565b60008073ffffffffffffffffffffffffffffffffffffffff168373ffffffffffffffffffffffffffffffffffffffff161415801561170657508273ffffffffffffffffffffffffffffffffffffffff168473ffffffffffffffffffffffffffffffffffffffff1614806116c757506116c684846109a3565b5b8061170557508273ffffffffffffffffffffffffffffffffffffffff166116ed83610ba1565b73ffffffffffffffffffffffffffffffffffffffff16145b5b90509392505050565b600080600090507a184f03e93ff9f4daa797ed6e38ed64bf6a1f010000000000000000831061176d577a184f03e93ff9f4daa797ed6e38ed64bf6a1f010000000000000000838161176357611762612588565b5b0492506040810190505b6d04ee2d6d415b85acef810000000083106117aa576d04ee2d6d415b85acef810000000083816117a05761179f612588565b5b0492506020810190505b662386f26fc1000083106117d957662386f26fc1000083816117cf576117ce612588565b5b0492506010810190505b6305f5e1008310611802576305f5e10083816117f8576117f7612588565b5b0492506008810190505b612710831061182757612710838161181d5761181c612588565b5b0492506004810190505b6064831061184a57606483816118405761183f612588565b5b0492506002810190505b600a8310611859576001810190505b80915050919050565b600073ffffffffffffffffffffffffffffffffffffffff168273ffffffffffffffffffffffffffffffffffffffff16036118d45760006040517f64a0ae920000000000000000000000000000000000000000000000000000000081526004016118cb9190611a6b565b60405180910390fd5b60006118e283836000610bf8565b9050600073ffffffffffffffffffffffffffffffffffffffff168173ffffffffffffffffffffffffffffffffffffffff16146119565760006040517f73c6ac6e00000000000000000000000000000000000000000000000000000000815260040161194d9190611a6b565b60405180910390fd5b505050565b6000604051905090565b600080fd5b600080fd5b60007fffffffff0000000000000000000000000000000000000000000000000000000082169050919050565b6119a48161196f565b81146119af57600080fd5b50565b6000813590506119c18161199b565b92915050565b6000602082840312156119dd576119dc611965565b5b60006119eb848285016119b2565b91505092915050565b60008115159050919050565b611a09816119f4565b82525050565b6000602082019050611a246000830184611a00565b92915050565b600073ffffffffffffffffffffffffffffffffffffffff82169050919050565b6000611a5582611a2a565b9050919050565b611a6581611a4a565b82525050565b6000602082019050611a806000830184611a5c565b92915050565b600081519050919050565b600082825260208201905092915050565b60005b83811015611ac0578082015181840152602081019050611aa5565b60008484015250505050565b6000601f19601f8301169050919050565b6000611ae882611a86565b611af28185611a91565b9350611b02818560208601611aa2565b611b0b81611acc565b840191505092915050565b60006020820190508181036000830152611b308184611add565b905092915050565b6000819050919050565b611b4b81611b38565b8114611b5657600080fd5b50565b600081359050611b6881611b42565b92915050565b600060208284031215611b8457611b83611965565b5b6000611b9284828501611b59565b91505092915050565b611ba481611a4a565b8114611baf57600080fd5b50565b600081359050611bc181611b9b565b92915050565b60008060408385031215611bde57611bdd611965565b5b6000611bec85828601611bb2565b9250506020611bfd85828601611b59565b9150509250929050565b600080600060608486031215611c2057611c1f611965565b5b6000611c2e86828701611bb2565b9350506020611c3f86828701611bb2565b9250506040611c5086828701611b59565b9150509250925092565b600060208284031215611c7057611c6f611965565b5b6000611c7e84828501611bb2565b91505092915050565b611c9081611b38565b82525050565b6000602082019050611cab6000830184611c87565b92915050565b611cba816119f4565b8114611cc557600080fd5b50565b600081359050611cd781611cb1565b92915050565b60008060408385031215611cf457611cf3611965565b5b6000611d0285828601611bb2565b9250506020611d1385828601611cc8565b9150509250929050565b600080fd5b600080fd5b7f4e487b7100000000000000000000000000000000000000000000000000000000600052604160045260246000fd5b611d5f82611acc565b810181811067ffffffffffffffff82111715611d7e57611d7d611d27565b5b80604052505050565b6000611d9161195b565b9050611d9d8282611d56565b919050565b600067ffffffffffffffff821115611dbd57611dbc611d27565b5b611dc682611acc565b9050602081019050919050565b82818337600083830152505050565b6000611df5611df084611da2565b611d87565b905082815260208101848484011115611e1157611e10611d22565b5b611e1c848285611dd3565b509392505050565b600082601f830112611e3957611e38611d1d565b5b8135611e49848260208601611de2565b91505092915050565b60008060008060808587031215611e6c57611e6b611965565b5b6000611e7a87828801611bb2565b9450506020611e8b87828801611bb2565b9350506040611e9c87828801611b59565b925050606085013567ffffffffffffffff811115611ebd57611ebc61196a565b5b611ec987828801611e24565b91505092959194509250565b600067ffffffffffffffff821115611ef057611eef611d27565b5b611ef982611acc565b9050602081019050919050565b6000611f19611f1484611ed5565b611d87565b905082815260208101848484011115611f3557611f34611d22565b5b611f40848285611dd3565b509392505050565b600082601f830112611f5d57611f5c611d1d565b5b8135611f6d848260208601611f06565b91505092915050565b60008060408385031215611f8d57611f8c611965565b5b6000611f9b85828601611bb2565b925050602083013567ffffffffffffffff811115611fbc57611fbb61196a565b5b611fc885828601611f48565b9150509250929050565b60008060408385031215611fe957611fe8611965565b5b6000611ff785828601611bb2565b925050602061200885828601611bb2565b9150509250929050565b7f4e487b7100000000000000000000000000000000000000000000000000000000600052602260045260246000fd5b6000600282049050600182168061205957607f821691505b60208210810361206c5761206b612012565b5b50919050565b60006060820190506120876000830186611a5c565b6120946020830185611c87565b6120a16040830184611a5c565b949350505050565b600081905092915050565b60006120bf82611a86565b6120c981856120a9565b93506120d9818560208601611aa2565b80840191505092915050565b60006120f182856120b4565b91506120fd82846120b4565b91508190509392505050565b7f4f6e6c79206d756c746973696720697320617574686f72697a656420746f206d60008201527f696e740000000000000000000000000000000000000000000000000000000000602082015250565b6000612165602383611a91565b915061217082612109565b604082019050919050565b6000602082019050818103600083015261219481612158565b9050919050565b7f4e487b7100000000000000000000000000000000000000000000000000000000600052601160045260246000fd5b60006121d582611b38565b91506121e083611b38565b92508282019050808211156121f8576121f761219b565b5b92915050565b60006040820190506122136000830185611a5c565b6122206020830184611c87565b9392505050565b600081519050919050565b600082825260208201905092915050565b600061224e82612227565b6122588185612232565b9350612268818560208601611aa2565b61227181611acc565b840191505092915050565b60006080820190506122916000830187611a5c565b61229e6020830186611a5c565b6122ab6040830185611c87565b81810360608301526122bd8184612243565b905095945050505050565b6000815190506122d78161199b565b92915050565b6000602082840312156122f3576122f2611965565b5b6000612301848285016122c8565b91505092915050565b60008190508160005260206000209050919050565b60006020601f8301049050919050565b600082821b905092915050565b60006008830261236c7fffffffffffffffffffffffffffffffffffffffffffffffffffffffffffffffff8261232f565b612376868361232f565b95508019841693508086168417925050509392505050565b6000819050919050565b60006123b36123ae6123a984611b38565b61238e565b611b38565b9050919050565b6000819050919050565b6123cd83612398565b6123e16123d9826123ba565b84845461233c565b825550505050565b600090565b6123f66123e9565b6124018184846123c4565b505050565b5b818110156124255761241a6000826123ee565b600181019050612407565b5050565b601f82111561246a5761243b8161230a565b6124448461231f565b81016020851015612453578190505b61246761245f8561231f565b830182612406565b50505b505050565b600082821c905092915050565b600061248d6000198460080261246f565b1980831691505092915050565b60006124a6838361247c565b9150826002028217905092915050565b6124bf82611a86565b67ffffffffffffffff8111156124d8576124d7611d27565b5b6124e28254612041565b6124ed828285612429565b600060209050601f831160018114612520576000841561250e578287015190505b612518858261249a565b865550612580565b601f19841661252e8661230a565b60005b8281101561255657848901518255600182019150602085019450602081019050612531565b86831015612573578489015161256f601f89168261247c565b8355505b6001600288020188555050505b505050505050565b7f4e487b7100000000000000000000000000000000000000000000000000000000600052601260045260246000fdfea2646970667358221220f6d711f05c60359877a60c69c70c071378fd1d6d2dcf0c52a460f0e53fb6686f64736f6c634300081c0033",
  "linkReferences": {},
  "deployedLinkReferences": {}
}