{
  "_format": "hh-sol-artifact-1",
  "contractName": "Marketplace",
  "sourceName": "contracts/marketplace.sol",
  "abi": [
    {
      "inputs": [
        {
          "internalType": "address",
          "name": "_multisigContract",
          "type": "address"
        }
      ],
      "stateMutability": "nonpayable",
      "type": "constructor"
    },
    {
      "anonymous": false,
      "inputs": [
        {
          "indexed": true,
          "internalType": "address",
          "name": "buyer",
          "type": "address"
        },
        {
          "indexed": true,
          "internalType": "address",
          "name": "nftContract",
          "type": "address"
        },
        {
          "indexed": true,
          "internalType": "uint256",
          "name": "tokenId",
          "type": "uint256"
        },
        {
          "indexed": false,
          "internalType": "uint256",
          "name": "price",
          "type": "uint256"
        }
      ],
      "name": "ItemBought",
      "type": "event"
    },
    {
      "anonymous": false,
      "inputs": [
        {
          "indexed": true,
          "internalType": "address",
          "name": "seller",
          "type": "address"
        },
        {
          "indexed": true,
          "internalType": "address",
          "name": "nftContract",
          "type": "address"
        },
        {
          "indexed": true,
          "internalType": "uint256",
          "name": "tokenId",
          "type": "uint256"
        },
        {
          "indexed": false,
          "internalType": "uint256",
          "name": "price",
          "type": "uint256"
        }
      ],
      "name": "ItemListed",
      "type": "event"
    },
    {
      "inputs": [
        {
          "internalType": "address",
          "name": "nftContract",
          "type": "address"
        },
        {
          "internalType": "uint256",
          "name": "tokenId",
          "type": "uint256"
        }
      ],
      "name": "buyItem",
      "outputs": [],
      "stateMutability": "payable",
      "type": "function"
    },
    {
      "inputs": [
        {
          "internalType": "address",
          "name": "nftContract",
          "type": "address"
        },
        {
          "internalType": "uint256",
          "name": "tokenId",
          "type": "uint256"
        },
        {
          "internalType": "uint256",
          "name": "price",
          "type": "uint256"
        }
      ],
      "name": "listItem",
      "outputs": [],
      "stateMutability": "nonpayable",
      "type": "function"
    },
    {
      "inputs": [
        {
          "internalType": "uint256",
          "name": "",
          "type": "uint256"
        }
      ],
      "name": "listings",
      "outputs": [
        {
          "internalType": "address",
          "name": "seller",
          "type": "address"
        },
        {
          "internalType": "address",
          "name": "nftContract",
          "type": "address"
        },
        {
          "internalType": "uint256",
          "name": "tokenId",
          "type": "uint256"
        },
        {
          "internalType": "uint256",
          "name": "price",
          "type": "uint256"
        }
      ],
      "stateMutability": "view",
      "type": "function"
    },
    {
      "inputs": [],
      "name": "multisigContract",
      "outputs": [
        {
          "internalType": "address",
          "name": "",
          "type": "address"
        }
      ],
      "stateMutability": "view",
      "type": "function"
    }
  ],
  "bytecode": "0x608060405234801561001057600080fd5b50604051610bac380380610bac833981810160405281019061003291906100db565b806000806101000a81548173ffffffffffffffffffffffffffffffffffffffff021916908373ffffffffffffffffffffffffffffffffffffffff16021790555050610108565b600080fd5b600073ffffffffffffffffffffffffffffffffffffffff82169050919050565b60006100a88261007d565b9050919050565b6100b88161009d565b81146100c357600080fd5b50565b6000815190506100d5816100af565b92915050565b6000602082840312156100f1576100f0610078565b5b60006100ff848285016100c6565b91505092915050565b610a95806101176000396000f3fe60806040526004361061003f5760003560e01c806304d5232b1461004457806389bfd38f1461006f5780639f37092a14610098578063de74e57b146100b4575b600080fd5b34801561005057600080fd5b506100596100f4565b604051610066919061074c565b60405180910390f35b34801561007b57600080fd5b50610096600480360381019061009191906107ce565b610118565b005b6100b260048036038101906100ad9190610821565b6103cd565b005b3480156100c057600080fd5b506100db60048036038101906100d69190610861565b61069b565b6040516100eb949392919061089d565b60405180910390f35b60008054906101000a900473ffffffffffffffffffffffffffffffffffffffff1681565b60008054906101000a900473ffffffffffffffffffffffffffffffffffffffff1673ffffffffffffffffffffffffffffffffffffffff163373ffffffffffffffffffffffffffffffffffffffff16146101a6576040517f08c379a000000000000000000000000000000000000000000000000000000000815260040161019d9061093f565b60405180910390fd5b60008390503373ffffffffffffffffffffffffffffffffffffffff168173ffffffffffffffffffffffffffffffffffffffff16636352211e856040518263ffffffff1660e01b81526004016101fb919061095f565b602060405180830381865afa158015610218573d6000803e3d6000fd5b505050506040513d601f19601f8201168201806040525081019061023c919061098f565b73ffffffffffffffffffffffffffffffffffffffff161461025c57600080fd5b60405180608001604052803373ffffffffffffffffffffffffffffffffffffffff1681526020018573ffffffffffffffffffffffffffffffffffffffff168152602001848152602001838152506001600085815260200190815260200160002060008201518160000160006101000a81548173ffffffffffffffffffffffffffffffffffffffff021916908373ffffffffffffffffffffffffffffffffffffffff16021790555060208201518160010160006101000a81548173ffffffffffffffffffffffffffffffffffffffff021916908373ffffffffffffffffffffffffffffffffffffffff1602179055506040820151816002015560608201518160030155905050828473ffffffffffffffffffffffffffffffffffffffff163373ffffffffffffffffffffffffffffffffffffffff167fd547e933094f12a9159076970143ebe73234e64480317844b0dcb36117116de4856040516103bf919061095f565b60405180910390a450505050565b6000600160008381526020019081526020016000206040518060800160405290816000820160009054906101000a900473ffffffffffffffffffffffffffffffffffffffff1673ffffffffffffffffffffffffffffffffffffffff1673ffffffffffffffffffffffffffffffffffffffff1681526020016001820160009054906101000a900473ffffffffffffffffffffffffffffffffffffffff1673ffffffffffffffffffffffffffffffffffffffff1673ffffffffffffffffffffffffffffffffffffffff16815260200160028201548152602001600382015481525050905080606001513410156104f6576040517f08c379a00000000000000000000000000000000000000000000000000000000081526004016104ed90610a08565b60405180910390fd5b8273ffffffffffffffffffffffffffffffffffffffff166342842e0e826000015133856040518463ffffffff1660e01b815260040161053793929190610a28565b600060405180830381600087803b15801561055157600080fd5b505af1158015610565573d6000803e3d6000fd5b5050505060016000838152602001908152602001600020600080820160006101000a81549073ffffffffffffffffffffffffffffffffffffffff02191690556001820160006101000a81549073ffffffffffffffffffffffffffffffffffffffff0219169055600282016000905560038201600090555050806000015173ffffffffffffffffffffffffffffffffffffffff166108fc82606001519081150290604051600060405180830381858888f1935050505015801561062b573d6000803e3d6000fd5b50818373ffffffffffffffffffffffffffffffffffffffff163373ffffffffffffffffffffffffffffffffffffffff167f263223b1dd81e51054a4e6f791d45a4a1ddb4aadcd93a2dfd892615c3fdac187846060015160405161068e919061095f565b60405180910390a4505050565b60016020528060005260406000206000915090508060000160009054906101000a900473ffffffffffffffffffffffffffffffffffffffff16908060010160009054906101000a900473ffffffffffffffffffffffffffffffffffffffff16908060020154908060030154905084565b600073ffffffffffffffffffffffffffffffffffffffff82169050919050565b60006107368261070b565b9050919050565b6107468161072b565b82525050565b6000602082019050610761600083018461073d565b92915050565b600080fd5b6107758161072b565b811461078057600080fd5b50565b6000813590506107928161076c565b92915050565b6000819050919050565b6107ab81610798565b81146107b657600080fd5b50565b6000813590506107c8816107a2565b92915050565b6000806000606084860312156107e7576107e6610767565b5b60006107f586828701610783565b9350506020610806868287016107b9565b9250506040610817868287016107b9565b9150509250925092565b6000806040838503121561083857610837610767565b5b600061084685828601610783565b9250506020610857858286016107b9565b9150509250929050565b60006020828403121561087757610876610767565b5b6000610885848285016107b9565b91505092915050565b61089781610798565b82525050565b60006080820190506108b2600083018761073d565b6108bf602083018661073d565b6108cc604083018561088e565b6108d9606083018461088e565b95945050505050565b600082825260208201905092915050565b7f4f6e6c79206d756c746973696720697320617574686f72697a65640000000000600082015250565b6000610929601b836108e2565b9150610934826108f3565b602082019050919050565b600060208201905081810360008301526109588161091c565b9050919050565b6000602082019050610974600083018461088e565b92915050565b6000815190506109898161076c565b92915050565b6000602082840312156109a5576109a4610767565b5b60006109b38482850161097a565b91505092915050565b7f4e6f7420656e6f7567682066756e647320746f20707572636861736500000000600082015250565b60006109f2601c836108e2565b91506109fd826109bc565b602082019050919050565b60006020820190508181036000830152610a21816109e5565b9050919050565b6000606082019050610a3d600083018661073d565b610a4a602083018561073d565b610a57604083018461088e565b94935050505056fea2646970667358221220174e16fd62fa78845b06f1f1b4aee1e77a3ae450b0e98f0b50f44352adcca4db64736f6c634300081c0033",
  "linkReferences": {},
  "deployedLinkReferences": {}
}