{
  "_format": "hh-sol-artifact-1",
  "contractName": "Multisig",
  "sourceName": "contracts/multisig.sol",
  "abi": [
    {
      "inputs": [
        {
          "internalType": "address[3]",
          "name": "_owners",
          "type": "address[3]"
        }
      ],
      "stateMutability": "nonpayable",
      "type": "constructor"
    },
    {
      "anonymous": false,
      "inputs": [
        {
          "indexed": false,
          "internalType": "uint256",
          "name": "transactionId",
          "type": "uint256"
        }
      ],
      "name": "TransactionConfirmed",
      "type": "event"
    },
    {
      "anonymous": false,
      "inputs": [
        {
          "indexed": false,
          "internalType": "uint256",
          "name": "transactionId",
          "type": "uint256"
        }
      ],
      "name": "TransactionExecuted",
      "type": "event"
    },
    {
      "anonymous": false,
      "inputs": [
        {
          "indexed": false,
          "internalType": "uint256",
          "name": "transactionId",
          "type": "uint256"
        },
        {
          "indexed": false,
          "internalType": "address",
          "name": "to",
          "type": "address"
        },
        {
          "indexed": false,
          "internalType": "uint256",
          "name": "value",
          "type": "uint256"
        }
      ],
      "name": "TransactionSubmitted",
      "type": "event"
    },
    {
      "inputs": [
        {
          "internalType": "uint256",
          "name": "",
          "type": "uint256"
        },
        {
          "internalType": "address",
          "name": "",
          "type": "address"
        }
      ],
      "name": "approvals",
      "outputs": [
        {
          "internalType": "bool",
          "name": "",
          "type": "bool"
        }
      ],
      "stateMutability": "view",
      "type": "function"
    },
    {
      "inputs": [
        {
          "internalType": "uint256",
          "name": "_transactionId",
          "type": "uint256"
        }
      ],
      "name": "approveTransaction",
      "outputs": [],
      "stateMutability": "nonpayable",
      "type": "function"
    },
    {
      "inputs": [
        {
          "internalType": "uint256",
          "name": "",
          "type": "uint256"
        }
      ],
      "name": "owners",
      "outputs": [
        {
          "internalType": "address",
          "name": "",
          "type": "address"
        }
      ],
      "stateMutability": "view",
      "type": "function"
    },
    {
      "inputs": [],
      "name": "requiredApprovals",
      "outputs": [
        {
          "internalType": "uint256",
          "name": "",
          "type": "uint256"
        }
      ],
      "stateMutability": "view",
      "type": "function"
    },
    {
      "inputs": [
        {
          "internalType": "address",
          "name": "_to",
          "type": "address"
        },
        {
          "internalType": "uint256",
          "name": "_value",
          "type": "uint256"
        }
      ],
      "name": "submitTransaction",
      "outputs": [],
      "stateMutability": "nonpayable",
      "type": "function"
    },
    {
      "inputs": [
        {
          "internalType": "uint256",
          "name": "",
          "type": "uint256"
        }
      ],
      "name": "transactions",
      "outputs": [
        {
          "internalType": "address",
          "name": "to",
          "type": "address"
        },
        {
          "internalType": "uint256",
          "name": "value",
          "type": "uint256"
        },
        {
          "internalType": "bool",
          "name": "executed",
          "type": "bool"
        },
        {
          "internalType": "uint256",
          "name": "confirmations",
          "type": "uint256"
        }
      ],
      "stateMutability": "view",
      "type": "function"
    }
  ],
  "bytecode": "0x6080604052600260035534801561001557600080fd5b506040516113b73803806113b7833981810160405281019061003791906103bb565b60005b60038160ff16101561015457600073ffffffffffffffffffffffffffffffffffffffff16828260ff1660038110610074576100736103e8565b5b602002015173ffffffffffffffffffffffffffffffffffffffff16036100cf576040517f08c379a00000000000000000000000000000000000000000000000000000000081526004016100c690610474565b60405180910390fd5b600160046000848460ff16600381106100eb576100ea6103e8565b5b602002015173ffffffffffffffffffffffffffffffffffffffff1673ffffffffffffffffffffffffffffffffffffffff16815260200190815260200160002060006101000a81548160ff021916908315150217905550808061014c906104d0565b91505061003a565b5080600090600361016692919061016d565b50506104f9565b82600381019282156101d9579160200282015b828111156101d85782518260006101000a81548173ffffffffffffffffffffffffffffffffffffffff021916908373ffffffffffffffffffffffffffffffffffffffff16021790555091602001919060010190610180565b5b5090506101e691906101ea565b5090565b5b808211156102035760008160009055506001016101eb565b5090565b6000604051905090565b600080fd5b600080fd5b6000601f19601f8301169050919050565b7f4e487b7100000000000000000000000000000000000000000000000000000000600052604160045260246000fd5b6102648261021b565b810181811067ffffffffffffffff821117156102835761028261022c565b5b80604052505050565b6000610296610207565b90506102a2828261025b565b919050565b600067ffffffffffffffff8211156102c2576102c161022c565b5b602082029050919050565b600080fd5b600073ffffffffffffffffffffffffffffffffffffffff82169050919050565b60006102fd826102d2565b9050919050565b61030d816102f2565b811461031857600080fd5b50565b60008151905061032a81610304565b92915050565b600061034361033e846102a7565b61028c565b9050806020840283018581111561035d5761035c6102cd565b5b835b818110156103865780610372888261031b565b84526020840193505060208101905061035f565b5050509392505050565b600082601f8301126103a5576103a4610216565b5b60036103b2848285610330565b91505092915050565b6000606082840312156103d1576103d0610211565b5b60006103df84828501610390565b91505092915050565b7f4e487b7100000000000000000000000000000000000000000000000000000000600052603260045260246000fd5b600082825260208201905092915050565b7f496e76616c6964206f776e657200000000000000000000000000000000000000600082015250565b600061045e600d83610417565b915061046982610428565b602082019050919050565b6000602082019050818103600083015261048d81610451565b9050919050565b7f4e487b7100000000000000000000000000000000000000000000000000000000600052601160045260246000fd5b600060ff82169050919050565b60006104db826104c3565b915060ff82036104ee576104ed610494565b5b600182019050919050565b610eaf806105086000396000f3fe608060405234801561001057600080fd5b50600436106100625760003560e01c8063025e7c27146100675780631d43b65314610097578063242232d1146100b357806399c1aadc146100cf5780639ace38c2146100ed578063ab2850da14610120575b600080fd5b610081600480360381019061007c919061093d565b610150565b60405161008e91906109ab565b60405180910390f35b6100b160048036038101906100ac91906109f2565b610186565b005b6100cd60048036038101906100c8919061093d565b61033f565b005b6100d76105f4565b6040516100e49190610a41565b60405180910390f35b6101076004803603810190610102919061093d565b6105fa565b6040516101179493929190610a77565b60405180910390f35b61013a60048036038101906101359190610abc565b610667565b6040516101479190610afc565b60405180910390f35b6000816003811061016057600080fd5b016000915054906101000a900473ffffffffffffffffffffffffffffffffffffffff1681565b600460003373ffffffffffffffffffffffffffffffffffffffff1673ffffffffffffffffffffffffffffffffffffffff16815260200190815260200160002060009054906101000a900460ff16610212576040517f08c379a000000000000000000000000000000000000000000000000000000000815260040161020990610b74565b60405180910390fd5b60006006805490509050600660405180608001604052808573ffffffffffffffffffffffffffffffffffffffff1681526020018481526020016000151581526020016000815250908060018154018082558091505060019003906000526020600020906004020160009091909190915060008201518160000160006101000a81548173ffffffffffffffffffffffffffffffffffffffff021916908373ffffffffffffffffffffffffffffffffffffffff1602179055506020820151816001015560408201518160020160006101000a81548160ff0219169083151502179055506060820151816003015550507f6974e8be5912ae917b788db2884a51e71cbe0f0979af347e6a32d07d52ef82a381848460405161033293929190610b94565b60405180910390a1505050565b600460003373ffffffffffffffffffffffffffffffffffffffff1673ffffffffffffffffffffffffffffffffffffffff16815260200190815260200160002060009054906101000a900460ff166103cb576040517f08c379a00000000000000000000000000000000000000000000000000000000081526004016103c290610b74565b60405180910390fd5b600681815481106103df576103de610bcb565b5b906000526020600020906004020160020160009054906101000a900460ff161561043e576040517f08c379a000000000000000000000000000000000000000000000000000000000815260040161043590610c46565b60405180910390fd5b6005600082815260200190815260200160002060003373ffffffffffffffffffffffffffffffffffffffff1673ffffffffffffffffffffffffffffffffffffffff16815260200190815260200160002060009054906101000a900460ff16156104dc576040517f08c379a00000000000000000000000000000000000000000000000000000000081526004016104d390610cd8565b60405180910390fd5b60016005600083815260200190815260200160002060003373ffffffffffffffffffffffffffffffffffffffff1673ffffffffffffffffffffffffffffffffffffffff16815260200190815260200160002060006101000a81548160ff02191690831515021790555060016006828154811061055b5761055a610bcb565b5b9060005260206000209060040201600301600082825461057b9190610d27565b925050819055506003546006828154811061059957610598610bcb565b5b906000526020600020906004020160030154106105ba576105b981610696565b5b7fef524c298d730e7d5714dbe2fce9d4eca7de755a12628704719170afda39678b816040516105e99190610a41565b60405180910390a150565b60035481565b6006818154811061060a57600080fd5b90600052602060002090600402016000915090508060000160009054906101000a900473ffffffffffffffffffffffffffffffffffffffff16908060010154908060020160009054906101000a900460ff16908060030154905084565b60056020528160005260406000206020528060005260406000206000915091509054906101000a900460ff1681565b600354600682815481106106ad576106ac610bcb565b5b9060005260206000209060040201600301541015610700576040517f08c379a00000000000000000000000000000000000000000000000000000000081526004016106f790610da7565b60405180910390fd5b6006818154811061071457610713610bcb565b5b906000526020600020906004020160020160009054906101000a900460ff1615610773576040517f08c379a000000000000000000000000000000000000000000000000000000000815260040161076a90610c46565b60405180910390fd5b60006006828154811061078957610788610bcb565b5b906000526020600020906004020160000160009054906101000a900473ffffffffffffffffffffffffffffffffffffffff1673ffffffffffffffffffffffffffffffffffffffff16600683815481106107e5576107e4610bcb565b5b90600052602060002090600402016001015460405161080390610df8565b60006040518083038185875af1925050503d8060008114610840576040519150601f19603f3d011682016040523d82523d6000602084013e610845565b606091505b5050905080610889576040517f08c379a000000000000000000000000000000000000000000000000000000000815260040161088090610e59565b60405180910390fd5b60016006838154811061089f5761089e610bcb565b5b906000526020600020906004020160020160006101000a81548160ff0219169083151502179055507f15ed165a284872ea7017f03df402a0cadfbfab588320ffaf83f160c2f82781c7826040516108f69190610a41565b60405180910390a15050565b600080fd5b6000819050919050565b61091a81610907565b811461092557600080fd5b50565b60008135905061093781610911565b92915050565b60006020828403121561095357610952610902565b5b600061096184828501610928565b91505092915050565b600073ffffffffffffffffffffffffffffffffffffffff82169050919050565b60006109958261096a565b9050919050565b6109a58161098a565b82525050565b60006020820190506109c0600083018461099c565b92915050565b6109cf8161098a565b81146109da57600080fd5b50565b6000813590506109ec816109c6565b92915050565b60008060408385031215610a0957610a08610902565b5b6000610a17858286016109dd565b9250506020610a2885828601610928565b9150509250929050565b610a3b81610907565b82525050565b6000602082019050610a566000830184610a32565b92915050565b60008115159050919050565b610a7181610a5c565b82525050565b6000608082019050610a8c600083018761099c565b610a996020830186610a32565b610aa66040830185610a68565b610ab36060830184610a32565b95945050505050565b60008060408385031215610ad357610ad2610902565b5b6000610ae185828601610928565b9250506020610af2858286016109dd565b9150509250929050565b6000602082019050610b116000830184610a68565b92915050565b600082825260208201905092915050565b7f4e6f7420616e206f776e65720000000000000000000000000000000000000000600082015250565b6000610b5e600c83610b17565b9150610b6982610b28565b602082019050919050565b60006020820190508181036000830152610b8d81610b51565b9050919050565b6000606082019050610ba96000830186610a32565b610bb6602083018561099c565b610bc36040830184610a32565b949350505050565b7f4e487b7100000000000000000000000000000000000000000000000000000000600052603260045260246000fd5b7f5472616e73616374696f6e20616c726561647920657865637574656400000000600082015250565b6000610c30601c83610b17565b9150610c3b82610bfa565b602082019050919050565b60006020820190508181036000830152610c5f81610c23565b9050919050565b7f5472616e73616374696f6e20616c726561647920617070726f7665642062792060008201527f74686973207369676e6572000000000000000000000000000000000000000000602082015250565b6000610cc2602b83610b17565b9150610ccd82610c66565b604082019050919050565b60006020820190508181036000830152610cf181610cb5565b9050919050565b7f4e487b7100000000000000000000000000000000000000000000000000000000600052601160045260246000fd5b6000610d3282610907565b9150610d3d83610907565b9250828201905080821115610d5557610d54610cf8565b5b92915050565b7f4e6f7420656e6f75676820617070726f76616c73000000000000000000000000600082015250565b6000610d91601483610b17565b9150610d9c82610d5b565b602082019050919050565b60006020820190508181036000830152610dc081610d84565b9050919050565b600081905092915050565b50565b6000610de2600083610dc7565b9150610ded82610dd2565b600082019050919050565b6000610e0382610dd5565b9150819050919050565b7f5472616e73616374696f6e206661696c65640000000000000000000000000000600082015250565b6000610e43601283610b17565b9150610e4e82610e0d565b602082019050919050565b60006020820190508181036000830152610e7281610e36565b905091905056fea26469706673582212208f75e6f0bf5359f561367b14dee6d26f49718666586af2076ca54779d9dfdb4864736f6c634300081c0033",
  "linkReferences": {},
  "deployedLinkReferences": {}
}